:020000040800F2
:10000000F8BF01205D010308DBCD0508C9CD050857
:10001000DDCD0508E9CD0508F5CD05080000000097
:1000200000000000000000000000000001CE0508F4
:1000300003CE05080000000099DC0508D1DC0508A6
:1000400001000308EDCE0508F9CE050801CF05082B
:100050008D3D06080100030881CE050887CE0508FE
:100060008DCE050893CE050899CE0508D1FA05086E
:10007000E1FA0508F1FA050801FB050811FB05087E
:1000800021FB050831FB0508010003080000000002
:100090000000000000000000000000009FCE0508E6
:1000A00015CF05081BCF05082DCF050833CF050850
:1000B00039CF05083FCF050845CF050877CF05089C
:1000C0007DCF050883CF050889CF05080100030807
:1000D0000100030865CF05086BCF0508000000008C
:1000E000C3CE0508F3CE050811CE050800000000B8
:1000F00000000000000000000000000041FB0508B7
:1001000000000000010003084DCF050801000308AE
:1001100000000000000000000000000000000000DF
:1001200051FB050861FB050871FB050881FB05080B
:1001300091FB050800000000000000000000000026
:1001400000000000000000000000000005CE0508CF
:10015000A1FB0508B1FB0508C1FB050871CF050827
:100160008FCF050895CF05080000000000000000B3
:10017000000000000000000000000000000000007F
:100180000000000001000308000000000000000063
:100190000100030801000308006870470B0A0170A2
:1001A00043700B0C090E8370C1707047036A0239EB
:1001B000023B8B4283BFC389406B01FB03000020DD
:1001C0007047C2F307238A76CB764379032B01BFAE
:1001D000120C0A75120A4A75704700F10B010022D1
:1001E000D30143EA520310F8012B52FA83F38842F9
:1001F000DAB2F5D11046704737B50D46044620B93E
:10020000092000232B6003B030BD0368002BF7D01A
:100210005A79002AF4D081885A899142F0D118681D
:100220000DF10702062102F075FA9DF8073003F080
:100230000103034313F0FF00E2D12368E2E72DE955
:10024000F0470026D0F800A08E75836907460C465B
:10025000002B00F08D80C36A01336ED1FA69002350
:10026000551E18462E2615F8011F202900F1010001
:100270000CD0052908BFE521092804D10B2B9EBF0E
:10028000E71801337E72E718013379720B28EAD13F
:10029000E11800204872A17D00295ED1002B53D0C7
:1002A0006FF0080604F109000825361B331810F812
:1002B000011B00294BD02E298BB25BD0A3F1410149
:1002C000192903D8117B0D4200D020330373EDE7C9
:1002D000B9F1000F05D100F520539BB2B3F5006FC3
:1002E00013D340F2B51140EA094050F055FFFF2802
:1002F000C8F1FF0519D9012D22D904EB0803020A20
:100300009A75D87502239844002002368146DAF89F
:100310001030985B0028DBD14546B9F1000F18BFBB
:10032000002525440023AB7598E758B1002DF4D083
:1003300004EB080398750123E5E7B146B046E6E70C
:100340000025EAE70546E8E73F23A3750123234498
:1003500000219975137B03B96372D37A237202F17A
:100360001C00FFF719FF2060D38AE380138BA38062
:10037000BDE8F08710250B46A8E738B505680446A8
:1003800015F8010B20B140F2B51150F025FF08B16E
:10039000256038BD4FF0FF30FBE737B5C379044621
:1003A0001BB90025284603B030BD00F13C01826B2B
:1003B00000680191012302F098F9054680B9E36ACB
:1003C000E071A06B626AC31A9342EAD2A3790199E1
:1003D000022BE6D102440123206802F086F9E1E70E
:1003E0000125DFE738B5836B8B4205460C4610D0FC
:1003F000FFF7D3FF60B922462868012305F13C01CD
:1004000002F064F900281CBF4FF0FF340120AC63F8
:1004100038BD0020FCE7000038B50023C3714FF061
:10042000FF3383630546FFF7DDFF0446F8B9B5F8EF
:100430003A224AF655239A421BD195F83C30EB2BD1
:1004400003D01833DBB2012B15D80C49032205F178
:10045000720053F035FF40B10949052205F18E00C5
:1004600053F02EFF002818BF0224204638BD042474
:10047000FBE70324F9E70224F7E700BF3826070863
:100480003C260708F0B5437987B0044601F0FE0525
:100490008BB100680DF10702062102F03BF99DF8CF
:1004A0000730DE0707D41DB113F0040500D00A257C
:1004B000284607B0F0BD0023637120680DF10702E4
:1004C000052102F027F99DF80730D80700F1E680F2
:1004D0000DB15907EBD400212046FFF79DFF0228FC
:1004E00003D0012823D825796DB302AA04F2022390
:1004F00004F24221174613F8040C10B11846FFF716
:100500004BFE1033994242F8040BF4D1267906B120
:10051000013E57F8265075B129462046FFF77CFF6B
:10052000237953B901280ED90136032EF1D90428B5
:1005300007D10125BCE70320F2E70428F9D0012800
:1005400001D90D25B4E7B4F84730B3F5007FF8D1F1
:10055000B4F8521021B904F16000FFF71DFE014606
:1005600094F84C3061625A1E012AA371E9D894F8BC
:100570004960E681002EE4D0721E3242E1D1B4F827
:100580004D70A7813A07DCD1B4F84F0018B904F1D7
:100590005C00FFF701FEB4F84A20002AD1D001FB2D
:1005A00003FE02EB171CF4446045CAD3A0EB0C0019
:1005B000B042B0FBF6F3C4D33D488342C1D84FF6F6
:1005C000F57083426CD9032602332A440CEB0500F4
:1005D000032E2362A562E26260634FD1B4F8662005
:1005E0003A43AED104F16800FFF7D6FD9B002063CB
:1005F00003F2FF13B1EB532FA3D34FF0FF33C4E942
:100600000533032E4FF0800323722BD1B4F86C30E6
:10061000012B27D1691C2046FFF7E4FE10BBB4F87C
:100620003A2220724AF655239A421BD104F13C002B
:10063000FFF7B2FD1F4B984214D104F50870FFF785
:10064000ABFD03F1FF5303F500532033984209D16A
:1006500004F50970FFF7A0FDA06104F50A70FFF72B
:100660009BFD6061144A6671138801339BB213804D
:1006700063810025114B2361E56119E7002F3FF4E9
:1006800060AF7244022E22634FEA43021BBFD218AE
:1006900003F00103134603EB5203A9E7032507E721
:1006A00040F6F576B3428CBF022601268CE700BFE8
:1006B000F5FFFF0F525261416C0300206E030020D2
:1006C00001292DE9F04706460C46174673D9036AFF
:1006D0008B4270D94379022B3FD0032B50D0012B92
:1006E00069D101EB5108C16A01EB5821FFF77AFE8D
:1006F000054638BB06F13C0908F1010AC8F30808B1
:1007000014F001041FBF19F8083003F00F023B0179
:1007100003F0F00314BF1343FBB209F80830F16A89
:100720000123F37101EB5A213046FFF75BFE0546CA
:1007300040B9CAF3080A44B1C7F3071709F80A70A9
:100740000123F3712846BDE8F08719F80A30C7F392
:10075000032723F00F031F43F0E7C16A01EB1421C5
:10076000FFF740FE05460028ECD1640006F13C038B
:1007700004F4FF7418191F55C7F307274770DFE704
:10078000C16A01EBD411FFF72DFE05460028D9D12F
:10079000A40006F13C0304F4FE741C442046FFF759
:1007A000FBFC27F0704700F0704047EA000120464C
:1007B000FFF7F4FCC4E70225C4E7F7B5054601914D
:1007C000FFF7EBFD044600BB01992846FFF7EEFC5E
:1007D00005F13C070646A8634FF4007221463846EF
:1007E00053F046FDEB899C4205D3E889001B18BFF6
:1007F000012003B0F0BD286801233219394601F009
:1008000074FF0028F1D10134ECE70120F1E7F8B5DD
:100810000446FFF7C2FD0546002842D16379032B49
:1008200037D1277A012F34D104F13C0601464FF429
:100830000072304653F01CFD552384F83A32AA2347
:1008400084F83B3252234122722184F83C3084F8F0
:100850003D30612384F83E3084F8233284F83F2011
:1008600084F8201284F8211284F82222A16904F568
:100870000970FFF793FC616904F50A70FFF78EFCBD
:10088000A26A20680132A2633B46314601F02DFF87
:10089000257200222068114601F03CFF003818BF85
:1008A0000120F8BD03284B8B04BF8A8A43EA024328
:1008B000184670470129F8B506460C464ED9036A1A
:1008C00099424BD24379022B29D0032B34D0012BF0
:1008D00044D101EB5105C16A01EB5521FFF782FDBF
:1008E00010B14FF0FF30F8BD6F1CF16AC5F3080579
:1008F000354401EB5721304695F83C50FFF772FD27
:100900000028EED1C7F308073E44E30796F83C0001
:1009100045EA00204CBF0009C0F30B00E3E7C16AC1
:1009200001EB1421FFF75EFD0028DAD1640004F426
:10093000FF742644B08FD6E7C16A01EBD411FFF7EC
:1009400051FD0028CDD1A40006F13C0004F4FE7452
:100950002044FFF721FC20F07040C4E70120C2E7EB
:1009600037B50C46012C054611462BD9036A9C422B
:1009700028D222B14FF0FF32FFF7A2FE40B9214644
:1009800028460194FFF796FF0199044610B900200C
:1009900003B030BD012815D0431C15D000222846D5
:1009A000FFF78EFE0028F3D12A6AAB69911E8B42B5
:1009B00005D20133AB612B7A43F001032B729442D1
:1009C000DDD3E4E70220E3E70120E1E7F8B50546DF
:1009D0000F4649B94669B6B1036A9E4228BF01264F
:1009E000AB6993B9002405E0FFF764FF01280446D2
:1009F00002D801242046F8BD421C50D02B6A9842F0
:100A0000F8D33E46ECE70126EAE7B74215D12B6A58
:100A10007C1C9C4228BF022421462846FFF74AFF3F
:100A20000128E6D0431C3AD0D8B16B69012B04D918
:100A30002A6A934234BF1E463E4634462B6A01342E
:100A40009C4202D3012ECDD9022421462846FFF72D
:100A500031FF40B10128CCD0013020D0A642EDD1E9
:100A6000C0E7002CE9D04FF0FF3221462846FFF7BF
:100A700027FE90B957B92A6AAB696C61023A934272
:100A800010D92B7A43F001032B72B3E72246394683
:100A90002846FFF715FE0028EDD00128A9D14FF018
:100AA000FF34A7E7013BAB61EBE72DE9F8430769AA
:100AB00006682037B7F5001F24BF002383618369D0
:100AC0000446894673B1C7F30808B8F1000F39D15D
:100AD00041690133836139B9B389B3EB571F31D809
:100AE0000023A36104200BE0F389013B13EA5723A1
:100AF00028D13046FFF7DEFE0128054602D8022045
:100B0000BDE8F883421C01D10120F9E7336A834232
:100B100012D8B9F1000FE3D061692068FFF756FFE2
:100B20000546A8B10128EAD0431CEDD00146304665
:100B3000FFF743FE0028E7D1656129463046FFF7FD
:100B400035FBA0613C3646442761E6610020D7E7CB
:100B50000720D5E72DE9F047FF27D0F8009006469B
:100B600088463D4604244FF6FF7AB16911B9002C3E
:100B700064D054E04846FFF735FC044600284ED1C7
:100B8000F0690178002961D0C37AE52903F03F03B9
:100B9000B37149D02E2947D023F02002A2F1080CCE
:100BA000DCF1000242EB0C0242453DD10F2B40D15B
:100BB0004C0637D53369477BF36201F0BF01437BB5
:100BC000BB4231D1428B7ABB0378D9F81040DFF8B1
:100BD00080E023F040030D25013B6B4301251EF807
:100BE00001CB30F80CC00DB3FF2B1DD824F813C077
:100BF0006546013301320D2AF1D10278520605D53E
:100C000025B1FF2B10D8002224F813204D1EEDB281
:100C100000213046FFF749FF04460028A5D00023F5
:100C2000B3610CE08D42CAD0FF25F1E7D445E1D095
:100C3000FAE73DB9FFF7D1FAB84203D100242046C4
:100C4000BDE8F0874FF0FF33F362F8E70424E6E7EE
:100C500006270708B1F5001FF8B506460C4601D374
:100C60000220F8BDCA06FBD1826805680161CAB9D5
:100C70006B79022B01D92B6B9BB9AB89B3EB541F5A
:100C8000EED92B6BB361B3697261002BE8D003EB33
:100C900054233C35C4F308042C44B361F4610020B0
:100CA000DFE71A46EF897F02BC42114604D228468C
:100CB000FFF77CFAB061E6E73068FFF7FBFD431C05
:100CC000024606D00128CBD92B6A8342C8D9E41B3F
:100CD000EAE70120C5E7F8B50E460021076804469B
:100CE000FFF7B8FFA8B90546A1693846FFF77AFBB8
:100CF00078B9E3691B78E52B00D01BB90135B54203
:100D000001D1F8BD054601212046FFF7CEFE00289F
:100D1000EAD0042808BF0720F3E7C16A4B1C2DE97D
:100D2000F04105680669044618D1E5274FF001082F
:100D3000A1692846FFF756FB60B9E3691F7085F883
:100D400007802369B3420DD201462046FFF7ADFE6E
:100D50000028EDD0042808BF022003E0FFF77AFF47
:100D60000028E2D0BDE8F0812DE9F04F002185B0E8
:100D7000D0F800B00446FFF76DFF0546002840F0AC
:100D80008D804FF0FF3A4FF0FF08C4F82CA0C14609
:100D9000A1695846FFF726FB054600287ED1E66983
:100DA0003778002F7ED0F27AE52F02F03F03A3714F
:100DB00003D0100704D50F2B04D0C4F82CA050E0AA
:100DC0000F2B56D194F82B30590640D47A0646D5CD
:100DD000236996F80D80E36207F0BF07737B4345F4
:100DE0003FD1738B002B3CD13578DBF8103000936A
:100DF00005F03F05013D0D23DFF8B0905D43012272
:100E000019F8013BF35A7AB3FF2D2AD818460393F9
:100E100050F0F6F9009B0290691C33F8150001911F
:100E200050F0EEF9029A82421BD1039B01991A46B7
:100E30000D461D4B9945E3D133785B0604D51AB1B5
:100E4000009B33F8153063B9013F5FFA87F9002141
:100E50002046FFF72AFE0546002899D01EE0B94536
:100E6000BCD04FF0FF09F2E74FF6FF718B42E0D0A4
:100E7000F7E7B9F1000F04D13046FFF7AEF940456E
:100E80000CD094F82B5015F0010596D10B2204F1EB
:100E90002001304653F014FA00288ED1284605B0C0
:100EA000BDE8F08F0425F9E7132707080627070890
:100EB0002DE9F04F90F82BB01BF0A00489B0054647
:100EC00040F0E58007683A6932F81430002B6ED1A3
:100ED00005F1200696E807000DF1140A1BF0010F3A
:100EE0008AE8070000F0DA80402385F82B304FF0C5
:100EF00001089AE80700B4463B69ACE803002CF807
:100F0000022BB8F1050F4FEA12428CF8002062D98B
:100F1000981E424630F8021F00294AD10DF1130CE9
:100F2000072102F00F0E0EF13000392888BF0EF1B4
:100F300037000F2A0CF8010901F1FF314FEA1210B6
:100F40004BD801F120030DEB03027E2002F8140CB4
:100F500030460022914206D010F801CBBCF1200FA0
:100F600002F1010E3BD105F11F0C07299CBF01F1D5
:100F700020030DEB030002F1010296BF10F8140CE0
:100F800020200131072A0CF80200EED92846FFF78D
:100F9000EBFE814600287DD108F10108B8F1640F0D
:100FA000A7D14FF00709484609B0BDE8F08F0134DA
:100FB0008AE74FF0100C01F0010E0EEB4202D30352
:100FC00044BF82F4883282F02102BCF1010C4FEA66
:100FD0005101F0D19EE74246A0E70246A1E77246E2
:100FE000B8E729692846A1EB4411FFF733FE814693
:100FF0000028D8D13046FFF7F0F84FF6FF7801907F
:10100000A9693846FFF7EEF981460028CBD1EB6994
:10101000019AD7F810E05A73E1B24FF00F024FF087
:101020000D0CDA72DFF8D8A018734A1E0CFB02F21E
:101030009876D87684461AF8019B404518BF3EF84A
:10104000120003F8090003EB090B0CF1010C18BFA7
:1010500001324FEA1029002808BF4046BCF10D0FAD
:101060008BF80190E7D1404502D03EF812200AB932
:1010700041F0400119700123FB7100212846FFF760
:1010800014FD814600288ED1013CB9D11AE04FF001
:10109000060988E7042886D185F82BB01BF0020FDB
:1010A0001BBF0C340D210124B4FBF1F418BF013433
:1010B00021462846FFF70FFE814600287FF473AFD4
:1010C000013C8ED1A9693846FFF78CF9814600288A
:1010D0007FF469AF01462022E86953F0C9F803CED6
:1010E000EB6918605960B278318819819A7295F865
:1010F0002B30EA6903F0180313730123FB7152E7E5
:10110000062707082DE9F04F0A78036887B02F2AD1
:1011100006468B46019301D05C2A0AD159460A78CB
:101120002F2A8B4601F10101F9D05C2AF7D0002269
:1011300001E0019BDA69B2609BF800201F2A00F2EF
:10114000218180230021304686F82B3007B0BDE88E
:10115000F04FFFF77FBDFE2D00F23D8129F81520ED
:10116000013515E101330593059B19782F29F9D035
:101170005C29F7D0202A34BF04240024012DDDF897
:1011800014B02DD1B9F800202E2A2FD1002229F831
:10119000152006F1200195428CBF2E20202001321F
:1011A0000B2A01F8010BF6D144F0200486F82B40FD
:1011B0003046FFF7D9FD96F82B20002800F0D280AA
:1011C000042840F00981950602F0040140F1C68030
:1011D000002900F0D780802386F82B300020FBE028
:1011E000022D03D1B9F802202E2ACBD0A9F1020199
:1011F00095BB002229F81520002D00F0EC8039F86D
:1012000012002028114602F10102F8D009B92E2857
:1012100001D144F00304A9F1020030F815202E2A70
:1012200001D0013DF9D14FF020324FF00008726239
:101230003262C6F827204FF0080A474639F81100F5
:101240004A1C00B3202803D02E280DD1AA420FD06B
:1012500044F003041146F1E731F81520202A01D0AB
:101260002E2AC6D1013DC3E7D04505D2AA4239D1C5
:10127000BAF10B0F2ED102E0BAF10B0F25D144F0D9
:1012800003044FF00B0A96F82020E52A04BF05223C
:1012900086F82020BAF1080F04BFBF00FFB207F0A4
:1012A0000C020C2A03D007F00302032A01D144F0F8
:1012B0000204A2073FF57AAFFB0748BF44F01004D1
:1012C0007F0748BF44F0080470E7AA4202D044F008
:1012D0000304D8D8BF00FFB22A464FF00B0A4FF0E4
:1012E0000808B7E77F2812D944F0020340F2B5118D
:1012F000039202934FF050FF10F0800FDDE90232AD
:1013000010D03F4900F07F00085C1C4630B13D4BD7
:1013100013F8011B002964D08142F9D144F0030481
:101320005F2011E0FF28F0D90AF1FF31884503D38F
:1013300044F00304D0468DE706EB0801040A81F867
:10134000204008F101081C4606EB080108F10108DD
:1013500081F820007EE747F00207F5E7002908BF83
:10136000052039E0520737D4B279D30637D5019B2F
:101370003169587903F13C02C1F308011144FFF7C8
:1013800091FAB0603368CDF814B0D3F8109000250E
:1013900005A8FEF7F2FF411C1DD0B0F5803F28BF25
:1013A000030C82B224BF29F8153001351F2A7FF6BD
:1013B000E1AE2F2A3FF4D8AE5C2A3FF4D5AE7F2AA7
:1013C0003FF6C9AE1049104611F8013B002B3FF41F
:1013D000C2AE8342F8D1062007B0BDE8F08F0520E9
:1013E000FAE7A0F1410189B21929B4D9A0F161014C
:1013F00089B219299EBF203847F0010780B2A3E7C0
:10140000862607084B260708422607080021417157
:10141000FFF738B82DE9F04105468CB090461E46DE
:101420000C46002900F0BB8003F03F073946FFF768
:1014300029F8002840F0AB80414668460095FFF748
:1014400061FE024620B99DF92B30002BB8BF062261
:1014500016F01C0F68D0002A3AD0042A35D168460D
:10146000FFF726FD024680BB47F00807DDF81C8029
:1014700068794146FFF716FA064662F00DFE01460E
:1014800008F10E00FEF78AFE079B2022DA72079908
:1014900000222846FEF795FE079B00221A775A770E
:1014A0009A77DA770123EB71DEB10098D5F83880AE
:1014B0003146FFF755FA024638B941462846FEF74D
:1014C00091FF013E6E61024658B10023236027E080
:1014D0009DF8063013F0110F30D1730759D430073F
:1014E000C4D4AB6B0799236261623807687948BF3F
:1014F00047F04007FFF7D6F9A060034601F11C0052
:10150000FEF74AFE6A89A280B9064FF0000206463D
:10151000E060256027746274E261626110D4002289
:1015200010460CB0BDE8F081002ACED19DF80630FF
:10153000D90630D4B207D4D5DE07D2D50722C4E706
:101540000028ECD0EF8960617F02B74210D30022FF
:10155000A361002AB9D1C6F308010029DFD01946DA
:101560002846FEF723FEC0B100EB5620E061D7E726
:1015700019462068FFF79EF901280346A6EB0706E7
:1015800003D9421CE1D10122E2E70222E0E7024650
:101590009BE7082299E7042297E7022295E70922B0
:1015A000BEE72DE9F04F994685B000238846C9F87B
:1015B000003003A904461746FEF71EFE0646F8B99A
:1015C000667CEEB994F810A01AF0010300937CD069
:1015D000E2686369D21A974228BF174687B16269E9
:1015E000C2F30803002B57D1039BDB89013B13EAAD
:1015F000522A15D142B9A06801280AD80226667479
:10160000304605B0BDE8F08FA1692068FFF752F9B8
:10161000F2E7431C03D10123009E6374F0E7A0614D
:10162000DDF80CB0A1695846FEF7C0FD0028E5D0F2
:10163000B7F5007F0AEB00022DD3BBF80E10019224
:101640000AEB572088424FEA572588BFA1EB0A05CD
:10165000DBF800002B46414601F038F80028DAD1CB
:101660000399CB795BB1886B019A801AA84206D2A4
:101670004FF400723C3108EB402052F0B5FD6D0292
:10168000D9F800302B44C9F8003063692B447F1B24
:10169000A8446361A2E7E2616569E1690398C5F363
:1016A0000805C5F50075BD4228BF3D46FEF79AFE08
:1016B0000028B0D1039963693C31C3F308032A467B
:1016C0001944404652F090FDDAE7072698E72DE9E5
:1016D000F04F9A4685B000238946CAF8003003A926
:1016E00004461746FEF788FD064620BB667C16BBFF
:1016F000237C9A0740F1A9806369FB4200D3DF4352
:10170000AFB16369C3F30802002A40F08180039AF5
:10171000B2F80E8008F1FF3818EA53281ED173B9C9
:10172000A06870B901462068FFF750F948B9237CDA
:1017300043F040032374304605B0BDE8F08FA16943
:10174000F1E7012802D102266674F4E7431C01D1B7
:101750000126F9E7A368A06103B9A0600398E369D3
:10176000826B9A4203D1FEF718FE0028F0D1039D48
:10177000A1692846FEF71AFD0028E4D0B7F5007FDE
:1017800008EB000B36D3E98908EB572088424FEA73
:101790005723286888BFA1EB08035A46494601939E
:1017A00000F0A3FF05460028D2D1DDF80C80019B94
:1017B000D8F83810A1EB0B0199420AD24FF400720D
:1017C00009EB412108F13C0052F00EFD019B88F825
:1017D00007505D02DAF8003062692B44CAF8003025
:1017E0007F1BE368A94415446561AB422CBFE360ED
:1017F000E56085E76169E368994207D32846FEF70B
:10180000CCFD0028A4D1039BC3F838B0C4F81CB0A9
:101810006569E1690398C5F30805C5F50075BD4222
:1018200028BF3D46FEF7DEFD002891D1039863698D
:101830003C30C3F308032A461844494652F0D4FC0E
:10184000039B4FF00102DA71C4E7072673E7F7B58F
:1018500001A90546FEF7D0FC044660BB2C7C14F0C1
:10186000400428D062F018FC296A07460198FEF768
:10187000B9FD0446F8B96E6AF37A43F02003F372B7
:10188000AA6828683146FEF79CFCE96806F11C004E
:10189000FEF784FC394606F11600FEF77FFC01983E
:1018A000B4740123F474C371FEF7B1FF2B7C23F0F1
:1018B000400304462B74204603B0F0BD13B5044624
:1018C000FFF7C5FF28B901A92046FEF795FC00B92E
:1018D000206002B010BD70B50E468CB000210546E8
:1018E000FEF7D0FD044660B9314668460095FFF723
:1018F00009FC044690B99DF92B30002B04DA029BB9
:10190000EB6120460CB070BD9DF80630DB0609D5B2
:1019100007996879FEF7C6FFE861F2E7042808BF77
:101920000524EEE70524ECE72DE9F0470E460021FB
:10193000D2B0317081469046FEF7A4FD0546F0B95D
:10194000D9F81C30CDF8009002934446DDF808A089
:10195000BAF1000F19D1444502D1013C2F23335570
:101960003346A11B1A5D03F8012B5A189045F9D88C
:10197000A8EB04030134A04538BF01231E44002313
:101980002846337052B0BDE8F08720216846FFF743
:1019900061F9002849D106994846FEF723FD07461C
:1019A000002840D1079999F80500FEF77BFF3946DA
:1019B00002906846FFF74EF9B8BB00216846FFF772
:1019C000C9F80746A8BB079999F80500FEF76AFF12
:1019D00050450AD039466846FFF767F80028ECD032
:1019E0000546042D08BF0225C9E70CA96846FEF785
:1019F00026FC0DF14603194613F8012BBA460137B0
:101A0000002AF9D1A74212D8A4EB0A00524630446A
:101A100052F0EAFB631EA3EB0A036FEA0A022F21CE
:101A2000F154144492E70546A9E70546A7E71125B6
:101A3000A5E70546D5E72DE9F3410D4601A9044682
:101A4000FEF7DAFB0646002850D1667C002E4DD109
:101A5000E368AB4204D2227C12F0020F08BF1D469D
:101A60000022636962619DB90025E268636993425F
:101A700082BF227CE36042F04002C3F3080388BFC8
:101A80002274002B32D0E369AB4218BFE5612DE030
:101A9000019AD7897F02FBB1013B6A1EB3FBF7F1C4
:101AA000B2FBF7F28A4217D37A421340A16963610D
:101AB000ED1A0029D8D0BD42636922D863692B444E
:101AC0006361C5F30803002BCED00198FEF76EFBCF
:101AD00050B100EB5525C8E7A16881B92068FEF731
:101AE00075FF0128014605D102266674304602B012
:101AF000BDE8F081481C01D10126F6E7A160A16193
:101B0000D7E73B446361237C20689A07A5EB07086D
:101B100005D5FEF75BFF054620B90146CEE7FEF787
:101B2000C9FE05466B1CE7D0012DDDD9019B1B6A60
:101B3000AB42D9D9A56129464546BCE770B50546F3
:101B400016460C4621B30021FEF79CFC68B92560BF
:101B500031462046FFF7D6FAE0B994F92B30002B36
:101B60000BDBA379DB0603D40520002323600EE002
:101B70006879E169FEF796FEA0606B89A380002179
:101B80002046FFF767F80428EED00028EDD170BD9D
:101B90000920FCE70428E7D0E7E713B501A90446CC
:101BA000FEF72AFB00B9206002B010BD73B50D46E8
:101BB00001A90446FEF720FB20B9014620461DB9C5
:101BC000FFF748F802B070BDFEF7C4FF10F0FB0647
:101BD000F8D129462046FEF732FB31462046FEF773
:101BE00064FF042808BF0020ECE770B50E468CB0F7
:101BF000002104461546FEF745FC0094044670B9E2
:101C000031466846FFF77EFA044640B99DF92B300D
:101C1000002B07DB1DB129466846FEF710FB204666
:101C20000CB070BD0624FAE72DE9F84F8846002174
:101C30000446FEF727FC054640B9D4F820A0A36966
:101C4000AAF10202934204D8C8F800302846BDE841
:101C5000F88F6379012B17D10227064639462046B3
:101C6000FEF728FE431C34D0012834D000B90136D9
:101C7000236A0137BB42F1D8C8F80060237AA66115
:101C800043F001032372E1E7E16A0746064604F1E7
:101C90003C0937B9204601F1010BFEF7A3FBE0B97F
:101CA00059466379022B09EB07000AD139F807304E
:101CB00003B901360237BAF1010AC7F30807E8D1C0
:101CC000DAE7FEF769FA30F0704308BF01360437EF
:101CD000F1E70125D0E70225CEE70546CCE7F0B5D0
:101CE0000E4699B002210546FEF7CCFB044688B9A2
:101CF000314668460095FFF705FA044650B99DF84D
:101D00002B3098063BD4190639D49DF80670FA0793
:101D100003D50724204619B0F0BD07996879FEF76E
:101D2000C1FDFB0606460BD46846FEF7F6FF0446E7
:101D30000028EFD1D6B92846FEF769FD0446E9E749
:101D4000EB698342E5D00E9021460CA80C95FEF776
:101D500081FF04460028DDD101460CA8FEF7FAFEFB
:101D600004460028D5D00428D4D1DDE70246314608
:101D70000098FEF7F5FD04460028CBD1DBE70624EA
:101D8000C8E72DE9F0410E468CB002210546FEF76A
:101D900079FB0446002868D1314668460095FFF774
:101DA000B1F9044600286ED004285ED19DF82B10AE
:101DB00011F0200169D12846FEF708FE06460028EA
:101DC00057D0012857D0431C5C425C4162F064F953
:101DD0000746002C51D131462846FEF7EEFC04465A
:101DE00000284AD14FF02033EB632B64C5F8433011
:101DF0002E2385F83C30102385F84730394605F10D
:101E0000520005F13C04FEF7C9F932462146284646
:101E1000FEF7D7F905F15C031A4651F8040B42F8B6
:101E2000040B9942F9D12E23029A85F85D30284699
:101E30004FF00108FEF7C5F985F807806846FFF7FF
:101E400037F80446C8B9079839461630FEF7A6F9A0
:101E5000324607992846FEF7B4F9079B1022DA723A
:101E600085F80780FEF7D3FC044620460CB0BDE899
:101E7000F0810724AAE70224A8E700223146284679
:101E8000FEF76EFDF1E70824EFE70624EDE7F0B575
:101E90000D46A1B0022104461746FEF7F3FA0028CA
:101EA00077D1294608A80894FFF72CF9002870D1AB
:101EB0009DF84B3013F0A00F6DD10F9B6D4603F1D1
:101EC0002006186859682A4603C20833B3421546EB
:101ED000F7D108AE0FCE14AD0FC50FCE0FC596E8E3
:101EE0000F0085E80F00394614A8FFF70BF948B931
:101EF000169A0A9B9A4203D1189A0C9B9A4203D0D5
:101F0000082046E0042844D114A8FEF7D1FF002899
:101F10003FD11B990DF10D0301F10D020DF11D00D3
:101F200053F8045B42F8045B8342F9D118881080AF
:101F30009B7893709DF80B30DA0658BF43F020036E
:101F40000125CB72E571CB7ADB061BD50A9A169B6D
:101F50009A4217D06079FEF7A5FC01462046FEF7AD
:101F600025F90146C8B12046FEF73CFA88B994F835
:101F70005D302E2B06D1169A04F15C012046FEF747
:101F800020F9E57108A8FEF7C8FE10B92046FEF753
:101F90003EFC21B0F0BD0620FBE70220F9E700007F
:101FA000F0B595B0064601910221FEF76BFA0446A2
:101FB000002833D102AF4FF02033029305467B60F7
:101FC000C7F80730019B1B781F2B20D89DF80830DD
:101FD000E52B22D01DB16B1EFA5C202A30D00021E7
:101FE00008A808960A91FEF735FE0446B0B901210B
:101FF00008A8FEF7AFFD70BB0F9A1DB33B4603CB9D
:102000001060516019889B78937211811CE001A8BF
:10201000FEF7B3F9B0F5803F03D30624204615B090
:10202000F0BD4FF0EDF840F2B5114FF0B5F80028D3
:10203000F3D01E4A12F8013B93B39842FAD1ECE771
:102040001D46C7E7E52313700123F3713046FEF701
:10205000DEFB0446E2E70428FBD1002DDED001219F
:1020600008A8FEF738FE04460028D7D120220146F2
:102070000F9852F0FDF80F9B0822DA720F9ABDE715
:10208000092DCAD805F150036B44020A03F8482C05
:10209000013505F150036B44013503F8480C91E715
:1020A000FF28EDD80A2DF4D9B7E700BF132707089A
:1020B0002DE9F04FD0F800808BB01C46002343710F
:1020C000029103790193154605210DF11F02404647
:1020D00000F020FB9DF81F30DA0700F17D825E07DB
:1020E00000F17C8208AA0321404600F013FB30B9BE
:1020F000089A531EB3F5004F01D21A4201D00123B2
:1021000008935DB15A4BA5F500729A4203D913208A
:102110000BB0BDE8F08F6B1E2B42F8D1002C00F005
:102120005F82149BB3F5007FC0F05A82019B002BA5
:1021300062D0012300222146404600F0C7FA08B1D0
:102140000120E5E7B4F8FE214AF655239A4201D072
:102150000E20DDE7019B04EB031202F5D77392F822
:10216000B221002AF4D003F10800FEF715F8074663
:1021700003F10C00FEF710F80990DDF824B0BBF174
:10218000150FE5D9B5F5813FC1D2029B13F00203CB
:1021900005934FEA5522029B41D003F00703022B1F
:1021A00000F02C82029BD80740F12882002A3FD100
:1021B00030484FEA1B35012630F8023B0BB1AB42E9
:1021C00034D940F6F573BBFBF6F59D429BBF05EB9A
:1021D0004505013502356D088CBF6D0003354FF0A4
:1021E000200305F2FF1504938CBF4FF002094FF056
:1021F00001096D0A012324E209AA0121404600F0E9
:1022000089FA00289CD1029B13F0080F099B14BF88
:1022100000273F27BB429BD3DB1B0993ADE7D907C0
:10222000C4D474E75200F0E11346F5E17600C3E749
:102230001646C6E7B9F1020F1ED103994FF6F570A5
:10224000814208D9002A40F0D5817600402E00F264
:1022500030823246AAE7039940F6F570814213D8DE
:10226000002A7FF475AF7200802A9FD970E700BF03
:1022700000FEFF0026270708039940F6F5729142F9
:102280003FF666AF4FF001094FF40072002120467F
:10229000059351F0EDFFD34A059B1168A373C3F377
:1022A0000723B9F1030F2160E373516861604FF0B8
:1022B000010323741189927AA2720CBF00234FF498
:1022C000007302221B0ABBF5803F218122736673D3
:1022D000A37480F01D8184F813B0CBF3072B84F82E
:1022E00014B0F82363753F2323764FF0000BFF23D0
:1022F00084F819B0A37684F81BB0394604F11C00A9
:10230000FDF74CFFB9F1030F40F0088161F0C4FE06
:10231000014604F14300FDF741FF294604F1240082
:10232000FDF73CFF022384F82C30012384F8303081
:10233000062384F83230802384F84030292384F83F
:102340004230A94B84F82DB084F82EB084F82FB019
:1023500084F831B084F833B004F1470203F110017E
:1023600053F8040B42F8040B8B42F9D119889B787F
:1023700093704FF05503118084F8FE316FF05503D0
:1023800084F8FF313A4601232146404600F0ADF97A
:10239000834600287FF4D4AEB9F1030F3ED1012368
:1023A000BA1D2146404600F0A0F94FF4007259468C
:1023B000204651F05DFF5223237063706123A370A8
:1023C00084F8E731039B41227221E27084F8E41122
:1023D00084F8E51184F8E621591E04F5F470FDF740
:1023E000DDFE022384F8EC314FF0550384F8FE3112
:1023F0006FF0550384F8FF31FA1D0123214684F85C
:10240000EDB184F8EEB184F8EFB1404600F06DF91B
:102410000123FA182146404600F067F9149B23F483
:10242000FF7222F001020021204651F021FFB9F194
:10243000030F40F09080F8232370FF236370A37094
:10244000E37023716371A371E37123726372A372EA
:102450000F23E372149B5B0A0393039BAB4228BFD9
:102460002B462146524640469B4600F03EF9014627
:1024700000287FF465AE4FF40072204651F0F8FE5C
:10248000B5EB0B05DA44E8D1049BB9F1030F18BF93
:102490001E46039DB54228BF35462B46524621466F
:1024A000404600F022F900287FF44AAE761BAA4489
:1024B000EFD1B9F1030F58D0099BB3F5803F56D245
:1024C000B9F1020F0CBF04250125019B002B50D050
:1024D000002201232146404600F0F8F80246002879
:1024E0007FF42EAE019B04EB031383F8B25101235A
:1024F0002146404600F0F9F800287FF421AE002282
:102500001146404600F006F9003818BF0120FFE5EB
:10251000594604F12000FDF741FEE2E661F0BCFD02
:10252000014604F12700FDF739FEC5F30723E375E3
:10253000802384F82430292384F826302B4BA5757A
:1025400004F12B0203F1100153F8040B42F8040BC1
:102550008B42F9D10AE7B9F1010F2549204618BF8E
:102560006FF00701FDF71AFE74E70C25ADE70625AD
:10257000ABE7029B1B07C2D401994FF400722046BF
:1025800051F076FE099A84F8C251552384F8FE3141
:10259000AA2384F8FF313A4443F6C163B2FBF3F255
:1025A000FE2384F8C331930843F03F03012684F8E7
:1025B000C43184F8C521394604F5E37084F8BF615D
:1025C00084F8C061FDF7EAFD099904F5E570FDF7AF
:1025D000E5FD019A33468BE7032099E50A2097E54C
:1025E000112095E5522607085E260708722607087F
:1025F000F8FFFF00059B002B3FF4AAAD002A7FF4F3
:1026000013AE30484FEA5B45012230F8023B1BB164
:10261000AB427FF607AE0023BBFBF2F02A4E8500EB
:10262000A0F57F40F63805F20725B0424FEA552560
:102630003FF68EAD16461A46002304934FF0030969
:1026400020230498DDF820E007EB030A05EB000CDB
:10265000D4440EF1FF306044CEF1000E00EA0E00CB
:10266000A0EB0C00B9F1030F06BF1B1882442D1814
:10267000C7EB06108444E345FFF46AAD0498ABEB66
:102680000000C01AB9F1030FA0EB0500B0FBF6F093
:1026900003907FF4CFAD03994FF6F57081423FF67A
:1026A000F3AD002A7FF454AD012E7FF651AD7208D0
:1026B000A4E7059B002BA4D1802E3FF649AD3246FE
:1026C0007FE500BF34270708FFFFFE0F10B50C465B
:1026D00011461A4638B1234604304EF0ADF90038A1
:1026E00018BF012010BD0420FCE710B50C461146B0
:1026F0001A4650B1234604304EF0C6F910F11E0FB1
:1027000005D0003818BF012010BD0420FCE70220CE
:10271000FAE7000070B50D4614460646002833D08F
:10272000244A01F00703D15C00292FD00022043095
:102730004EF0D6F9062D27D8DFE805F008050A1671
:102740002619190006203BF09DF92060002070BD7D
:10275000062805D14FF4007323802388B360F5E782
:102760003BF090F92080F8E701232360EEE706288C
:1027700001D0430806D1336A002B0CBF0423002389
:102780002370E3E70123FBE70420E0E7062DFBD8F5
:1027900001A353F825F000BF4D2700084527000886
:1027A00055270008692700088927000877270008AF
:1027B0007727000838250708022970B50446154612
:1027C0001E4613D15368012B0AD0022B0CD01BB923
:1027D0001168201DFFF72FF9A3692B60002070BD41
:1027E00081692B681944F4E70169FAE701290AD1E4
:1027F0000430FFF72CF80028F0D0084B1B5C336046
:102800004FF0FF30EBE7042906D14368002BE5D0F9
:102810000430FFF753F8EEE71623F0E754250708D6
:1028200037B51D46043001AB1446FEF750FF38B1F2
:10283000064B1B5C2B604FF0FF34204603B030BDCD
:10284000019BA342F9D01C23F4E700BF54250708DD
:1028500013B51C46043001ABFEF7A3FE30B1044BA8
:102860001B5C23604FF0FF3002B010BD0198FBE706
:102870005425070813B50446084601913BF046F875
:10288000019B04490246204602B0BDE8104001F019
:102890006BB800BF402507082DE9F8438046104675
:1028A000894641F051F92E4F2E49013800243A460D
:1028B00010F8013FCBB92C202DF00AFD0646054645
:1028C00046F8047B484641F03FF9E3B20246314600
:1028D00008F14400FEF79EFD0746B8B328462DF0E8
:1028E00011FD214BD85D3AF065FA782BE0D8712BB9
:1028F00008D8612B23D0622B24D02B2BD8D144F0C5
:102900000304D5E7723B062BD2D801A555F823F076
:102910002D290008B128000849290008B12800081D
:10292000B1280008332900083929000844F00104BF
:10293000BEE744F00A04BBE744F00604B8E744F0FD
:102940001204B5E70F46B3E71746B1E7E30603D530
:1029500029693046FFF76FF82846BDE8F88300BFC5
:102960008825070868250708542507082DE9F04F32
:102970002DED028B87B006291E46B0EE408A9DF8E9
:102980004830019207468B4613D8012905D93F23C9
:1029900007F8013B00233B7001E00029FAD1BBF1AD
:1029A000010F94BF0020012007B0BDEC028BBDE8F1
:1029B000F08F10EE102A002A054623DAB4EE400A02
:1029C000F1EE10FA1ED62D2305F8013BB1EE408A38
:1029D0009FEDC97A019BF0EEC87AF4EE477AF1EEEA
:1029E00010FA03F0200312DD83F049022A7083F00D
:1029F0004E0283F046036A70E81CAB70002303703C
:102A0000C01BD1E7002BE3D005F8013BE0E7B4EEB3
:102A1000488AF1EE10FA08D743F04E0283F04103E2
:102A20002A706B70E81CAA70E8E7019B002E43F047
:102A30002009B8BF0626B9F1670F02D1002E08BFE2
:102A4000012618EE103AA5EB0708ABEB0808191E93
:102A500008F1FF3A1CD1B9F1660F09D1721C524539
:102A6000A8BFA8F10306721C6621002080460CE076
:102A7000721D5245A8BFA8F107060020B9F1650FE5
:102A800049460246F2D14FF02B088446044639E00D
:102A9000C1F3C752A2F17F0307EE903A9FED977AF8
:102AA000F8EEE77AB1F17E5F67EE877AFDEEE77ABE
:102AB00017EE904A80F0BE806242F8EEE70AB2EE6E
:102AC000040A02924EF018FC029A1446B4EEC08A30
:102AD000F1EE10FA00F19080B9F1660F08D0B9F16B
:102AE000670F40F09480042C00F39180621E16441E
:102AF000721C5245A8BFA8F103060020721C804634
:102B000084466621652926EAE67340F0EC805A1C6B
:102B10000646ACEB00004FF0000AF2EE048A029089
:102B2000002A80F2ED80BAF1040F39DD681E4FF003
:102B3000300C02782E2A064600F1FF30F9D0A2F1BF
:102B4000300EBEF1090F40F2148101363278302A7E
:102B500026D170782E2840F01981662900F0168160
:102B6000B8F12D0F3070727040F00E81013C08BF3B
:102B70004FF02B08B54206F10100A6EB0501A0EBD2
:102B800005003CBF00210120A5EB0602294438BF07
:102B900000222844029351F057FB3122029B3270ED
:102BA000B9F1670F0AD14BB12B461D46013B15F811
:102BB000012C302AF9D02E2A08BF1D46B8F1000F8B
:102BC00016D0019B85F801800A2103F0200A94FBAE
:102BD000F1F393FBF1F201FB123201FB13434AF0D4
:102BE000450A3032303385F800A0AA70EB70043506
:102BF00000232B70E81BD7E60134634200EE903AC5
:102C0000B2EE040AF8EEE00A4EF076FB5EE7A8F1B9
:102C10000603B34205DCB9F1670F14BFA8F107063C
:102C20001E4688EE008A6042494600224FF02D0879
:102C3000944667E7631C00EE903AB2EE040AF8EEA1
:102C4000E00A4EF059FBB4EEC08AF1EE10FA16DA43
:102C5000B9F1660F21D154452BDA321901325245B0
:102C600006DBAAEB0403012BA3F1020608BF002632
:102C7000321901322046A4464FF0000841E7A31C58
:102C800000EE903A621CF8EEE00AB2EE040A0292FC
:102C90004EF032FB029A1446D5E7B9F1650F08D021
:102CA000B9F1670F12D02046494600224FF02B0899
:102CB000BEE7A8F10603B34201DCA8F10706002233
:102CC00020464FF02B08944665211BE7321D5245E4
:102CD00001DBA8F10606B44202DB20466721E4E7E7
:102CE000631CF61AC4E767297FF412AF002EDABF1F
:102CF000012213461A460BE7FFFF7F7F9B209A3E77
:102D0000002E33DD07EE906AB2EE040AF8EEE70A11
:102D1000CDE9043203914EF0EFFADDE90313059A91
:102D20004FF0000AB4EEC80AF1EE10FA06DC0AF120
:102D3000010ABAF1090F38EE408AF3D1AC466AB104
:102D400002980AF1300EF0420CF801EB06D12BB1DB
:102D50004FF02E0E05F1020C85F801E0002ED8BFD1
:102D600028EE288A013A013E6546D9E6B7EE000A08
:102D7000D6E7392A02D001323270E7E6BE4280F847
:102D800001C07FF4D6AEE1E60134F3E66A1CD11B44
:102D9000594538BF1546EDE608B5044631B1054B37
:102DA0004A6C0360096800233CF024FF20462DF0A4
:102DB00059FA00BF24B706082DE9FF471E460192C5
:102DC000451812B1023A222A34D80446AC422746AA
:102DD00039D214F8010B2EF02FFB80460028F5D1D4
:102DE0003B782B2B29D12746E91B384601AA38F01E
:102DF0003AFB0744B9460024A9454B4626D3B8F10F
:102E0000000F00D06442640044F00104BB4209D0CA
:102E10001F46AF423B4641D2187801372EF00CFBDB
:102E20000028F6D12049019A20483CF0A3FE314603
:102E3000FFF7B2FF1E4839F0A3FD2D2B04BF274634
:102E40004FF00108D0E74FF00008CDE719F8012B4B
:102E5000A2F1300ABAF1090F09D95F2ACCD042F0A9
:102E60002002A2F161011929C9D8A2F1570A0199DA
:102E70005145C4D9204647F0B1FB28B9019B03FB5B
:102E800004A494EA4403B7D5019B03974246E91B87
:102E900003A83EF063F8039B0446B7E7C2D120467F
:102EA00004B0BDE8F08700BF8BAA0608B4B70608D7
:102EB00076AA06082DE9F04F2DED068B85B0CDE9F9
:102EC0000223149B9FEDB19ADFEDB19A4FF00009F8
:102ED0000AEE903A04464618CDF80490B0EE49AA9E
:102EE000B44280F09B8120782EF0A6FA804600281C
:102EF0003ED123782B2B41D10134B44280F08E8116
:102F0000237843F02003692B3ED1A31C9E4240F25C
:102F10007A81637843F020036E2B40F07481A378AC
:102F200043F02003662B40F06E81E31D9E4204F1C6
:102F300003051AD9E37843F02003692B15D12379CF
:102F400043F020036E2B10D1637943F02003692BEB
:102F50000BD1A37943F02003742B06D1E37943F01E
:102F60002003792B01D104F108059FED8A8A20E026
:102F70000134B0EE498AB0EE489AB1E72D2BBFD1AB
:102F8000012301340193B8E76E2B42D1A31C9E426A
:102F900040F23981637843F02003612B40F03381A4
:102FA000A37843F020036E2B40F02D819FED7A8AA9
:102FB000E51C029B7BB1B5420DD22B7843F0200378
:102FC0006A2B08D1A542F7EE007A08BFB0EE678AF7
:102FD000013549F00209019B1BB10123B1EE488A7A
:102FE0000193A5420DD0B5422C4680F0E1802078B7
:102FF00001352EF021FA0028F5D1039B002B40F07B
:10300000EB80664966483CF01FFD1AEE901AFFF708
:10301000C3FE0022DFED5D8AA646944613461146A4
:103020001046B2EE047A754615F801BBABF1300AD2
:10303000BAF1090F6ED8022825D15A4FB94202DCE5
:103040000A2707FB01A1AE4200F28F80B8F1000F02
:1030500000D049421344194411F1250FBEBFDFEDE2
:10306000527A253168EEA78A11F1090F7FD34B42BE
:1030700000EE903AB2EE040AF8EEE00A4EF03CF9A7
:1030800088EE808A95E7BAF1000F04D0F4EEE98A61
:10309000F1EE10FA15DB08B90133D4E70CF1010C9D
:1030A0000120D0E7F4EEE98AF1EE10FA46BFF0EE27
:1030B0004A7AE8EE877A013203F1FF3348BFF0EE37
:1030C000678A002BEED16346F4EEE98A7BB9F1EE14
:1030D00010FA1BD507EE90AAF8EEE77A0128E8EE81
:1030E000877AF0EE678A3AD1013A9C46ABE7F1EE77
:1030F00010FA42BFF0EE4A7AE8EE877A02F1FF3228
:1031000003F1FF3348BFF0EE678ADDE750BB0132C1
:10311000844698E7A0B9BBF12E0FC1D04BF0200A2E
:10312000BAF1650F0ED1AE427FD99EF801002B286F
:103130000ED10EF10205B5423FF463AF022082E7E3
:103140000228EBD1BBF15F0F3FF47DAF75467DE701
:103150002D2809D10EF102054FF00108EBE79C463E
:10316000184670E79C469BE70220AE465BE707EEF9
:10317000901AB2EE040AF8EEE70A4EF0BDF820EE1F
:10318000288A16E79FED018A254616E70000000011
:10319000EC78AD600000807F0000C07F97AA060831
:1031A000B4B7060864666606EA1C08020000000060
:1031B0007FF423AFB9F1010F3FF423AFB9F1000F52
:1031C00011D0F0EE480AB0EE490A05B0BDEC068B0E
:1031D000BDE8F04F3BF09EBCB9F1000F7FF411AF9A
:1031E0004FF00109C7E6039B23B15FED100AB0EE73
:1031F000480AEAE7B0EE480A05B0BDEC068BBDE828
:10320000F04F3CF007BE029B002BBBD1019B002B73
:103210003FF4F7AE1FED1B8A2546DEE600225FED88
:103220001D8A25461346114614E73FF4EAAE0DE722
:103230000846114651F0B8BF37B50546084601911A
:1032400051F050F8044620B102466B680199286895
:103250009847204603B030BD2DE9F74F89469DF8C9
:10326000301017460D9A11F0DF0F0646A2EB070249
:103270003DD0302925490CA813BF804688464FF021
:10328000100A4FF0010A13F0800535D002EBD2741A
:103290006510A2EB6404002D35DDAB46DA455246DD
:1032A00073683068A8BF5A46414601929847019A10
:1032B000ABEB020BBBF1000FF0DC2FB17368306891
:1032C0003A46494698473D44002C0CDD2544A2452A
:1032D0005746A8BF2746736830683A464146E41B04
:1032E0009847002CF3DC284603B0BDE8F08FDFF8E8
:1032F00020804FF0100AC6E713F0010401D11546F3
:10330000C9E71446D9E70025D7E700BFF99A0608B0
:10331000E89A06082DE9F04389B006460020119D81
:103320009DF84880139F8DF80F000AB381421ADA86
:103330002D228DF80F204942109A08ACA2F10A0004
:103340000DF11009B1FBF3FC03FB1C12092A8CBF21
:103350001218303204F8012D4C458E4661460ED0CD
:103360007345EFD90BE0A80727D52B228DF80F2046
:103370000029E1D130238DF81F300DF11F0415F025
:1033800040099DF80F301CD023B30122CDE9008203
:103390002B460DF10F013046FFF75EFF013F8146DE
:1033A00008AACDE900872B46121B21463046FFF7BD
:1033B00053FF484409B0BDE8F0836A07D8D52022FE
:1033C000D4E7002BECD004AA9442E9D904F8013CDC
:1033D000013CE5E79946E3E72DE9F04F93B01E463F
:1033E0009DF874300793CB07DDE91E871C9D81464D
:1033F0000C4692460BD4880703D109687F4B99424B
:1034000005D020463AF03EFB400040F0010415F0A4
:10341000810306D1079A302A03D1B845B8BFB84610
:103420001F4620463DF0ACFC00280DF1280B18DBB0
:10343000A90712D52B238DF828300DF12901EB06B1
:10344000F6B21DD5BAF1020F0DD10B46302003F8AC
:10345000020B701C4870194612E06A0701D5202340
:10346000E9E75946EBE7BAF1080F62D1A8054FF03A
:1034700030030B7045BF06F10E034B700131023172
:10348000002315F0200FA1EB0B020B700CBF1946A7
:103490002C21012F0EA8C8BF45F0400506920B90C5
:1034A00015F040024FF01000CDE90C03CDE90261A8
:1034B0008DF82730059246D0CDE900A30DAA23460A
:1034C0000CA90BA83DF034FB03782D2B824606D1C6
:1034D0008DF827300D9B013B00F1010A0D93012F60
:1034E00040F384800D9C059BBC42B8BF3C462BB189
:1034F0009DF8273003B10134069B1C44A0452DDD07
:1035000015F00103A8EB040429D126461C4625F03A
:1035100001054EB1202300930023019638491A4635
:103520004846FFF799FE0646059BD3B9302307931B
:103530003AE0BAF1100FA3D10B46302003F8020B8A
:1035400006F1170086E70AABCDE900A30DAA2346D2
:103550000CA90BA83DF0ECFA8246C0E70024002637
:10356000D5E7302307939DF827305BB10023012274
:10357000CDE900320DF127014846FFF76DFE08F155
:10358000FF380644069B63B100230122CDE90032D7
:103590005946069A4846FFF75FFE069B0644A8EB8D
:1035A0000308012FD8BF4746079B00930D9A019748
:1035B0002B4651464846FFF74FFE06444CB12023A8
:1035C000009300230E4901941A464846FFF744FE33
:1035D00006440B980EAB984201D02CF093FE304677
:1035E00013B0BDE8F08F00242646BCE7059B002BF6
:1035F000F9D11C461E464746D6E700BF0CBB06085D
:10360000EF2D07082DE9F04316468BB0B207DDF821
:1036100048900746984640D416F0040F0CBF00238C
:10362000202300930A46139B202102A8FFF79EF94E
:10363000F305044610D5431C1F2B0DD800F12802BA
:103640000DEB0204252204F8202C03F128026A4421
:10365000002102F8201C1C4616F040051FD09DF8E2
:1036600008302F2B4FF000031BD8012202A9CDE90F
:1036700000323846FFF7F0FD09F1FF390546013CFD
:103680000DF10901CDE90089334622463846FFF79E
:10369000E3FD28440BB0BDE8F0832B23C1E702A96A
:1036A000F0E702A91D46EDE72DE9F04F824689B00B
:1036B000144600260B461D4613F8012B82B9A94279
:1036C00011D30B78002B00F04681013120234FF0FD
:1036D00000080A4612F8015B7DB94FF00A0C2AE097
:1036E000252AE8D1EBE76F1ADAF80430DAF800009F
:1036F0003A4698473E442946E3E72D2D03D148F04A
:1037000001081146E5E72B2D02D148F00208F8E741
:10371000202D02D148F00408F3E7212D02D148F012
:103720000808EEE7302D22D148F040082B46E8E7A4
:103730000CFB0525303D0F4611F8012BA2F130009E
:103740000928F5D92E2A42D17A782A2A11D00A4698
:103750004FF00A0C0021174612F801BBABF1300004
:10376000092809D80CFB01BBABF13001F3E70025B8
:10377000B3E754F8041B023721EAE17B3A786C2A5C
:1037800008BF013797F80090B9F1000F00F0E3800F
:10379000B9F1780F6BD8B9F1570F1BD8B9F1470FB2
:1037A00062D8B9F1440F62D9073424F00704F4E871
:1037B0000201049361F092FBCDE9005B00EE100A78
:1037C000049B424649465046FFF71CFF63E04FF01A
:1037D000FF3BD3E7A9F15802202A48D801A151F8AC
:1037E00022F000BF253900086F3800086F38000844
:1037F0006F3800086F3800086F3800086F3800080D
:103800006F3800086F3800086F38000881380008EA
:10381000A338000809390008A9370008A9370008AB
:10382000A93700086F3800086F3800086F380008A3
:103830006F3800086F3800086F3800086F380008CC
:103840006F38000847390008B73800086F3800089B
:10385000E13800086F380008253900086F38000883
:103860006F38000825390008B9F1500F6BD0DAF82D
:103870000430DAF8000001223946984701360BE09F
:1038800054F8042BCDE9003543463AB134490422BB
:103890005046FFF7E1FC0644791C0BE7314905224D
:1038A000F6E754F8042B8DF81C20CDE900350122F1
:1038B000434607A9ECE707A954F8040B04932DF03D
:1038C00094FBBBF1FF3F049B014604D0079A93454C
:1038D00038BFCDF81CB0CDE90035079A4346D7E78D
:1038E00054F8041B05930846049150F0FBFCBBF10F
:1038F000FF3FDDE90413024602D0584528BF5A466F
:10390000CDE900354346C3E7CDE902356123009395
:10391000CDF804800A23012254F8041B5046FFF717
:10392000F9FCB8E729F00F0209F101010F3A01F0A3
:103930000601D2B2CDE90235CDF804800092C1F182
:1039400010030022E8E7CDE9023561230093CDF8AA
:1039500004801023F5E7304609B0BDE8F08F00BFC2
:10396000D49A0608D99A06080EB403B503AA52F8E9
:10397000041B0192FFF798FE02B05DF804EB03B060
:04398000704700008C
:020000040803EF
:10000000FEE700000F49D1F8883043F47003C1F8CF
:1000100088300D4B1A68002042F001021A60986087
:100020001A6822F0847222F480321A60074A5A60F9
:100030001A6822F480221A60D8604FF000638B6047
:10004000704700BF00ED00E000380240103000248F
:1000500070B5002494B010252A4621460AA80494BD
:1000600024F006F9384B01941A6C42F080521A645D
:100070001B6C03F080530193019B344B029419686D
:1000800041F4404119601B6803F440430293029B12
:1000900001224FF48033CDE908234FF4800302227C
:1000A000CDE90E23CDE90B450F230393284BD3F85D
:1000B0009C30C3F38340811E0D2924D8C3F38915D6
:1000C000A5F1C001F0291ED813F03E041BD0C3F3E4
:1000D00001429C0C190C013203F03F065B0F5200E9
:1000E00004F0F00401F4E0519B02CDE9122008A8CD
:1000F000CDE91065CDE90541079327F0AFFF50B179
:1001000014482CF011FB4FF480534FF4A0510420FD
:10011000C0251926E9E7119B19214B431099B3FB20
:10012000F1F33021B3FBF1F201FB1232003A1299E4
:10013000B3FBF1F118BF012203A82DF0ADFE08B109
:100140000548DEE714B070BD003802400070004082
:100150000028004098520608AA5206080446DFF814
:100160002CD00B490B4A0C4B03E051F8040B42F81E
:10017000040B9A42F9D300200849094A01E041F8EA
:10018000040B9142FBD320462CF024BCF8BF012085
:1001900048780708000000202400002024000020E8
:1001A000C433002040F8044B40F8045B40F8046B73
:1001B00040F8047B40F8048B40F8049B40F804AB03
:1001C00040F804BB40F804CB40F804DB68467047B5
:1001D000024B5A69026058610020704724000020D9
:1001E000024B5A6912685A61704700BF2400002010
:1001F000024B9A69C0E900219861704724000020F1
:10020000044A93691968916110B15A6818461047F9
:10021000704700BF2400002038B5054D0446AB6987
:100220000BB1A34200D338BD0120FFF7E9FFF6E789
:1002300024000020C460056146618761C0F81C800D
:10024000C0F82090C0F824A0C0F828B0C0F82CD086
:1002500080ED0C8B80ED0E9B80ED10ABC0F808E0BC
:10026000FFF7B6BF124D6C6908B50CB92CF09EFBB8
:1002700060602046FFF7D0FF23686B612046C468AA
:10028000056946698769D0F81C80D0F82090D0F8BD
:1002900024A0D0F828B0D0F82CD090ED0C8B90EDA5
:1002A0000E9B90ED10ABD0F808E00120704700BF26
:1002B0002400002010B50021044600F0C5FA18B94A
:1002C00014B120460CF048FB10BD002100F0BCBA70
:1002D00010B50121044600F0B7FA18B914B1204650
:1002E0000CF03AFB10BDFFF7E5BF10B501220C463C
:1002F00000F0C2FB18B914B120460CF02DFB10BD64
:1003000000F0BABB00F07ABB2DE9F0432A4C00257F
:100310004FF0030CD4F884620021013143189A088D
:1003200003F00303B25C5B0042FA03F303F0030340
:10033000022BF2D0D4F89032090103EB00108E08A2
:1003400089B300EB860603681A0729D1D4F8901206
:100350005A1AC2F3011E99424FEA92174FEA4E0E03
:100360004FEA12121CD8D4F89412994218D9D4F832
:10037000849219F8078048FA0EF303F003030CFA8D
:100380000EF1012B41EA08010AD104EB450E3F2D85
:1003900009F807109ABF0135AEF8A422C4F8A032BC
:1003A0000430B042CFD12DB1013D04EB4503B3F889
:1003B000A402AFE7BDE8F0832400002030B51C4C58
:1003C000D4E9A353C01AC109C0F3021E6B5C012219
:1003D00002FA0EF223EA02036B54D4F8982283093E
:1003E0004FEA101CB2EB901FD4F8840288BFC4F807
:1003F0009832C15C4FEA9C0E0CF0030303255B00AE
:1004000005FA03F321EA030300F80E300CF1010CA6
:10041000D4F884024FEA9C0E0CF0030310F80E107F
:100420005A0041FA02F202F00302022AE7D030BD7C
:100430002400002021F00F010A1A10B5013A134CD4
:10044000D200A4FB0242124C520AC4F89412A1EB4F
:100450008211C4E9A1020346C4F89012910001324E
:100460001344073102EBD102C4F88C32002123F08F
:10047000FFFE002301214FF0FF32C4E9A633C4E997
:10048000CA322381A4F8241310BD00BFF32C23FA31
:1004900024000020024A138901331381704700BFF2
:1004A00024000020024A1389013B1381704700BFDA
:1004B00024000020024B1889003818BF0120704723
:1004C00024000020F8B51C4D2B8900220133C5F80B
:1004D00028232B81C5F8A02205F1080405F5EC7648
:1004E000032754F8043F1A071AD1D5F89022981A16
:1004F000C0F3011193424FEA901C4FEA41014FEAC9
:1005000010100DD3D5F89422934209D2D5F8842245
:1005100012F80CE04EFA01F303F00303012B02D0B2
:10052000A642DED1F8BD07FA01F141EA0E0102F858
:100530000C10FFF7E9FEF3E724000020A9B32DE932
:10054000F0411A4E0F46051F00244FF0030855F8DE
:10055000043F1A0704F101041AD1D6F89022981A20
:10056000C0F3011C9A424FEA90114FEA4C0C4FEA3B
:1005700010100DD8D6F894229A4209D9D6F88422C0
:1005800012F801E04EFA0CF303F00303012B03D041
:10059000A742DCD1BDE8F08108FA0CFC4CEA0E0C55
:1005A00002F801C0FFF7B0FEF2E770472400002018
:1005B0002DE9F04F624CD4F8A03283B0002B00F04C
:1005C000B280D4F8881200268900C4F8A062894657
:1005D000002948D00027D4F88402BA0807F00303A2
:1005E000825C5B0042FA03F303F00303032B0D4626
:1005F00042D001378F42EED3D4F8A032002BE4D1A1
:10060000D4F89C32AB4238BF5D1C002D00F09680C0
:100610004FF00009CC464F46032304E0012A3FD0A7
:100620000137AF421FD0D4F884024FEA970807F091
:10063000030610F80810760041FA06F202F00302F1
:10064000022A00EB970E26D0032AE7D1022202FAF3
:1006500006F6B946013721EA0601AF4200F8081054
:100660004FF0000CDFD123890022013BC4E9A62909
:10067000238103B0BDE8F08F3846FFF745FED4F87C
:10068000881201378900B9420D46A4D8D4F8A032A7
:10069000002B9AD1B4E7BCF1000F3BD1B946BFE7BC
:1006A000D4F88C224FEAD70B07F0070A12F80BC0D8
:1006B0004CFA0AF0C00702EBD7022BD5D4F89012FF
:1006C000380151F800E001EB0710BEF1000F14D023
:1006D0006A46B2210BF0F4FA009A032342B10CF0FF
:1006E000ABFBDDE900010CF077FB0CF0BBFB032357
:1006F000D4F88C2212F80BC05A44012101FA0AFAEC
:100700002CEA0A0C82F800C0D4F8842212F80810EF
:1007100002EB080E03FA06F621EA06018EF8001035
:100720004FF0010C7CE7D4F88852D4F89C32AD002D
:10073000AB4238BF5D1C002D7FF46AAFA94692E73B
:1007400024000020044B1A8900210132C3F8A012B2
:100750001A81FFF72DBF00BF24000020394BD3E9D9
:10076000A4122DE9F047521A0024D3E9A161C0E98F
:100770000144C0E90344C0E9054402604FEA810C2A
:10078000A646274625462246A1462146A04616F8FB
:10079000093049000B4103F00303012B47D0022B22
:1007A00041D0002B38D0013294450ED04FEA920947
:1007B00002F0030116F809304FEA410A43FA0AF33E
:1007C00013F0030301D0012BE1D1012D11D0022D33
:1007D00002D14169013141618169A94238BF856116
:1007E00094450FD0012B26D04FEA920902F0030165
:1007F000CDE70169013101618169A94238BF856195
:100800009445EFD1474500D9C76024014FEA0E1344
:10081000C0E90143BDE8F0870EF1010EC0F808E021
:1008200001371D46BFE7013444600135BBE70134A1
:1008300044601D46B7E7B84501D2C760B8460027F7
:10084000D2E700BF240000200F302DE9F84306094D
:100850005AD0694C2389002B56D1B4F82433002B8D
:100860000D460CBF4FF0010E4FF0000E50D1D4F8E2
:100870009802D4F88872B84239D2D4F884C2411EA2
:10088000614400221AE00132964251D913F00C0F54
:100890001ED10132964240F2A68013F0300F1CD1D7
:1008A0000132964240F2A28013F0C00F1AD10132F9
:1008B000964240F29E800130B84218D211F8013FB2
:1008C00013F0030FDFD013F00C0F4FF00002E0D055
:1008D00013F0300F4FF00002E2D013F0C00F4FF0D2
:1008E0000002E4D00130B8424FF00002E6D3BEF17E
:1008F000000F09D131F08EFAD4F89802D4F888723A
:10090000B8424FF0010EB8D300231846BDE8F88373
:10091000D4E9CA239A42AAD331F07CFAD4F89802D7
:10092000D4F88872B84238BF4FF0010EA5D3EBE778
:100930008000811A012A01F1010703D1431C9B08A1
:10094000C4F89832D4F89C32834238BF03464FEA49
:10095000970EC4F89C3207F003031CF80E904FEA80
:1009600043080123023103FA08F343EA09038842EA
:100970000CF80E3013D34FF002084FEA910CD4F864
:1009800084E201F003031EF80C905B0008FA03F305
:10099000013143EA090388420EF80C30EDD2D4F855
:1009A0002833D4F890823344C4F8283308EB071373
:1009B00012011846002123F05BFCEA074FEA0716F4
:1009C0000346A2D50022D4F88C0248F80620F90884
:1009D0000122445C07F0070702FA07F72743475450
:1009E0001846BDE8F88380000130A2E7800002309D
:1009F0009FE7800003309CE724000020034B1A8906
:100A000012B908B1FFF7DABC704700BF240000201C
:100A100010F00F021CD11749D1F89032834218D838
:100A200010B4D1F8944284420ED9C31AD1F884424A
:100A30009909C3F30110615C4000014101F0030119
:100A400001294FEA131306D010465DF8044B704796
:100A500000221046704701329918880801F00301FE
:100A6000205C490040FA01F101F003010229F2D0B3
:100A70001201E9E7240000202DE9F84F88460646D8
:100A8000002800F0AC80002972D0594D2C89002C30
:100A900072D1D5F89012D5F88872411A0B09581CFA
:100AA00008F10F0EB0EB870F4FEA1E1E4FEA870AC0
:100AB000A44680F09A80D5F884920127840800F03B
:100AC000030B19F804404FEA4B0B44FA0BF404F003
:100AD0000304022C54D02CB90CF1010C0CEB0704CC
:100AE00074454ED3BE453FD01ED3BC44F4454CD2D2
:100AF000002A41D0D5F88C22C90903F00703515CC4
:100B00001941404601F00101FFF79EFE044698B3EB
:100B10003A01314623F068FB2B8933BB3046FFF79F
:100B20004DFC2046BDE8F88F9E4470463B444FF094
:100B300003084FEA900CD5F8841200F0030211F874
:100B40000C40520008FA02F2013024EA02029842F4
:100B500001F80C20EDD1D5F898324FEA9E02B3EBA4
:100B60009E0F88BFC5F8982234462046BDE8F88F0E
:100B70001F4B1C89002CD2D000242046BDE8F88FE2
:100B800001370130824599D1ACE703EB0E013B44BC
:100B9000994211D94FF002089808D5F8844203F021
:100BA000030214F800C0520008FA02F2013342EACC
:100BB0000C0299422254EFD1D5F89C32AEEB0702D9
:100BC0008B4238BF0B46120106EB0710344600215A
:100BD000C5F89C3223F04CFB2046BDE8F88F014657
:100BE0004046BDE8F84FFFF72FBE01277AE700BF68
:100BF0002400002010B58AB0044603A8FFF7AEFD1C
:100C0000DDE90430039A009007492046D2F7ACFE94
:100C1000DDE908310698079ACDE90010034920461E
:100C2000D2F7A2FE0AB010BDC0520608E452060870
:100C30002DE9F84FDFF85CB14A49DBF8902207460E
:100C4000D2F792FEDBF88822920077D0DFF8488155
:100C5000DFF848A1DFF8489100250EE0012E3DD0D5
:100C60002E2241493846D2F77FFEDBF88832013523
:100C7000B5EB830F4FEA830260D215F03F0610D028
:100C800005F003067600DBF88422AB08D35C43FA58
:100C900006F606F00306022E1ED0032EDED16D22CC
:100CA000DFE7DBF884122C46A00804F00303085C9D
:100CB0005B0040FA03F39B0702D101349442F3D363
:100CC000621B7F2A2ED805F0030676002A014146D2
:100CD0003846D2F749FED6E73D22C2E7DBF890223C
:100CE0002B01D2584A452FD0204B9A422ED0204B70
:100CF0009A422FD01F4B9A422AD01F4B9A4227D09C
:100D00001E4B9A4228D01E4B9A4225D01D4B9A4228
:100D100026D01D4B9A4221D01C4B9A420CBF4D222B
:100D200068229EE7920951463846D2F71DFEDBF84D
:100D3000883224F03F05B5EB830FC7D338461449FA
:100D4000BDE8F84FD2F778BA54228AE74C2288E7F8
:100D5000532286E7442284E7412282E7422280E749
:100D600046227EE72C5306086C53060860BC060832
:100D700058B30608B0C7060840C606082CB00608D7
:100D8000E0AF060864B80608B8B80608ECBD060867
:100D90002853060824000020645306084853060818
:100DA00004C90608054A0346506A1A6841688A421F
:100DB00002D3521A1A6070470068F7E72400002037
:100DC000014441F20553884204D398B2012838BF48
:100DD0000120704710F8012B03EB43135340F2E757
:100DE000034B044A5A620022C3F8DC21704700BF5B
:100DF00024000020A8FE06082DE9F04780460E4694
:100E0000FFF7DEFF124B5C6A07460CB920461AE07A
:100E1000D4F80C90002504F1180A4D4501D124683E
:100E2000F3E7236933F81530BB420ED163695B5D8C
:100E3000B3420AD15AF825003246414623F040FA1F
:100E400018B960682844BDE8F0870135E5E700BFC0
:100E5000240000202DE9F84381460E46FFF7CCFF21
:100E60000246002840F08B80FF2E03D945494648B2
:100E70000AF0A8FF454CD4F8DC01751C90B1D4E908
:100E800078132B448B4229D92944FFF739FA0746B6
:100E9000D8B90246D4F8E411D4F8DC01FFF730FAEF
:100EA000C4F8DC71802D2F4638BF80273846FFF705
:100EB0000CFAC4F8DC01D0BB2846FFF706FAC4F8E8
:100EC000DC0198BB28460BF047FDD4F8E0312B44F9
:100ED000C4F8E031D4F8DC31002BE3D0D4F8E431AD
:100EE000D4F8DC7131461F4448462B44C4F8E43141
:100EF000FFF766FF49468046324638464FF0000904
:100F000023F072F907F80690636AD3E90253AB4203
:100F100025D36D000A2D38BF0A25C5EBC500183052
:100F2000FFF7D3F948B9C4F8DC01CBE72F4600231B
:100F3000C4F8E071C4F8E431D0E700F11803626A44
:100F4000026003EB8503036103EB450343615368D0
:100F5000D268C0F80C901344C0E901356062636A3E
:100F6000D3E903215B6921F812809E54911D636AC5
:100F700043F82170D96858680131D960024410469D
:100F8000BDE8F8836F530608B8B6060824000020B1
:100F900010B5044623F0A6F901462046BDE81040EE
:100FA000FFF758BF07B5019001A8FFF7FBFE019AB4
:100FB000036933F8120003B05DF804FB07B5019034
:100FC00001A8FFF7EFFE019B4269D05C03B05DF81A
:100FD00004FB07B5019001A8FFF7E4FE019B06336F
:100FE00050F8230003B05DF804FB13B5019001A88D
:100FF0000C46FFF7D7FE019B4269D25C22600633A4
:1010000050F8230002B010BD2DE9F8431D4600231F
:1010100003600B6013602B60164BDFF85C905C6A1A
:101020000746884616460CB14C4505D12B683268F8
:1010300013442B60BDE8F8833B6801333B60E268F2
:10104000D8F800301344C8F800306269E368D1185A
:101050008A4207D32046FFF7DBFC2B68246818443C
:101060002860E0E7336812F8010B01330344336072
:10107000EEE700BF24000020A8FE06082DE9F84393
:101080000D4B0E4F5C6ADFF83880DFF838900CB1FA
:10109000BC4201D1BDE8F883E36804F1180505EB13
:1010A0008306B54201D32468F1E755F8042B414685
:1010B0004846D2F759FCF4E724000020A8FE0608B1
:1010C00077530608E09A060830B50023202411F86B
:1010D000012F0AB9027030BD120600F101051FD5BB
:1010E0000BB1047028460B78124A03F07F036BB9EA
:1010F000013A12F8013F13F0800F054600F101009C
:101100000BD003F07F032B700123E0E712F9015BA2
:10111000002DFBDA013BDBB2E9E700F8013CE8E730
:10112000012B04BF047028460B7800F8013B022312
:10113000CDE700BF7E53060838B5446803682144F4
:101140009942054610D9037B1BB1084800210AF0DB
:1011500039FE01F1100424F00704083480682146A8
:10116000FFF7C3F82C60A86038BD00BFB8B606080A
:1011700070B504460E4611461546FFF7DDFFD4E96B
:1011800001302A463146184423F05EF862682A444A
:10119000626070BD70B54668B142044628BF3146F2
:1011A0000D460121FFF7C8FFA368681C5919721B7F
:1011B000184423F049F86368A06801336360284449
:1011C00070BD38B50129044638BF01210025084605
:1011D00021606560FFF76EF82573A06038BD38B5F3
:1011E00005460C460131FFF7ECFF6C6038BD00236B
:1011F000C0E90132012301600373704738B514461A
:101200000546FFF7DEFF024B2560636038BD00BF77
:1012100071110308037B10B5044613B98068FFF70A
:1012200071F80023A36010BD13B501901020FFF7E3
:1012300041F801990446FFF7C4FF204602B010BDF3
:1012400010B5044648B1037B13B98068FFF75AF81C
:101250002046BDE81040FFF755B810BD38B5037BF8
:1012600004460D461BB1074800210AF0ABFD01689A
:1012700080682944FFF739F82368A0601D44256081
:10128000184438BDB8B6060838B504460D46FFF711
:1012900053FFD4E901301D446560184438BDD0E9DE
:1012A00000239A4210B5044602D10121FFF7D6FF70
:1012B000D4E901320021D154A06810BD10B50C460C
:1012C0000121FFF7E1FF047010BD7F29F8B50C463E
:1012D000CEB204D80121FFF7D7FF0670F8BD06F0A3
:1012E0003F06B1F5006FC1F3871546F0800607D2BF
:1012F0000221FFF7C9FF65F03F0505704670EDE775
:1013000005F03F05B1F5803FC1F3073745F0800593
:1013100008D20321FFF7B8FF67F01F070770457079
:101320008670DBE70421FFF7AFFFA40C07F03F074F
:1013300064F00F0467F07F07047047708570C67013
:10134000CCE713B504460846019122F0CBFF019982
:101350000246204602B0BDE81040FFF709BF10B5B5
:101360001446FFF717FF047010BD10B51446FFF7C1
:1013700011FF047010BD43688B422CBF591A002125
:101380004160704738B50446154662688A4208468F
:1013900003D929448A4201D8606038BDA368521A33
:1013A0001844194422F050FF6268521B6260F4E74F
:1013B00090F9001003780029024601DB18467047B7
:1013C00003F07F004023184206D112F8013F03F0DA
:1013D000C001802904D0704720EA03005B08F2E7CF
:1013E00003F03F0343EA8010EFE7431C1846013344
:1013F000027802F0C002802AF8D07047034600202D
:10140000994200D8704711F8012D02F0C002802ADD
:1014100018BF0130F4E701440346002099421A4600
:1014200000D87047127802F0C002802A03F101034D
:1014300018BF0130F2E700007F289DBF024B185C07
:10144000C0F34000002070470A9B06087F289DBF1C
:10145000024B185CC0F3C000002070470A9B0608CE
:101460007F289DBF024B185CC0F3800000207047AE
:101470000A9B06087F289DBF024B185CC0F38010B2
:10148000002070470A9B06087F2809D8064B1B5C82
:1014900013F00C0F06D1A0F15F035842584170477A
:1014A00000207047012070470A9B06087F289DBFD7
:1014B000024B185CC0F30010002070470A9B06081E
:1014C0007F289DBF024B185CC0F34010002070477E
:1014D0000A9B060808B50246FFF7E8FF00B1203274
:1014E000104608BD08B50246FFF7EAFF00B1203AF2
:1014F000104608BD3038092884BF20F02000073886
:10150000704710B501440246E5240020914203D8FB
:10151000B0FA80F0400917E012F8013B30B103F057
:10152000C003802B11D10138C0B2EFE7BF2B09D91E
:10153000F72B09D8D80800F0060044FA00F000F0B4
:101540000300E3E71B06E1D510BD0020FCE70239EC
:1015500081420B4603D31A880239002AF8D002339D
:10156000181A40107047B2EB131F70B505464FEACA
:10157000131614D9901B03F00F0401EB4601024629
:101580000E46012A31F8023B18BF3368E3409BB294
:10159000013A25F8023BF3D103B9013870BD0020B0
:1015A000FCE7F0B5059F0024D21B2646A74210D1C8
:1015B00000EB470C01EB47010024A24214D10CEBD5
:1015C00042031EB101212CF812100233181A4010E8
:1015D000F0BD31F8145033F814C06544354420F898
:1015E00014502E0C0134E1E731F8145035442CF836
:1015F00014502E0C0134E0E7F0B4049F0025D21BF8
:101600002C46AF420BD100EB470601EB4705002308
:101610009A420FD106EB4201F0BCFFF798BF31F8B8
:101620001560344433F81560A41B20F815402414C9
:101630000135E6E735F813100C4426F8134024145E
:101640000133E5E72DE9F043079CDDF828E0DDE90B
:1016500008760239154684464FF6FF78A4EB020956
:1016600055B900EB42011FB1012320F812300231BD
:10167000BDE8F043FFF76BBF31F8024F013D444432
:10168000264405EB0904AC4296BF33F8024B4FF6F3
:10169000FF744444744486EA040E17FA8EF72CF85B
:1016A000027B4FEA144E360C3F0CD9E738B50229BD
:1016B0000446806838BF02210D4618B12368B1EB9B
:1016C000930F07D96900FEF710FE2368A06065F349
:1016D0009F03236038BD38B504460C20FEF7EAFDB1
:1016E00023682278054602F00102C3F39D0023F02F
:1016F000030313432B6063686B604000FEF7DAFD61
:10170000A8602268A168C2F39D02520022F06CFD1D
:10171000284638BD994210B511D313D800EB4100CB
:1017200002EB410209B9084610BD30F8023D32F81B
:10173000024D1B1B002B02DB04D10139F2E74FF0F5
:10174000FF30F1E70120EFE710B5044638B18068BB
:10175000FEF7D8FD2046BDE81040FEF7D3BD10BD12
:1017600038B505460C460221FFF7A0FF002C2B7868
:10177000B4BF0122002262F300032B70AB68B4BF38
:1017800061422146023B012223F8021F090C104648
:1017900002F10102F8D1686038BD0023C0E90033CE
:1017A0008360704728B103789B0702D48068FEF7F6
:1017B000A9BD704738B505460C464968FFF776FF66
:1017C00022782B78A86862F300032B7063686B6043
:1017D0006268A1685200BDE8384022F005BD0A46A3
:1017E00029B90178426062F3000101707047FFF788
:1017F000B7BF08B5FFF7D1FFBDE80840FFF7EFBF5F
:10180000920042F0020210B402600022C0E90121FD
:101810005DF8044B1946FFF7E2BFF8B59DF8187064
:1018200014461D4604210646FFF740FF22462B467C
:1018300027B1002D0CDA624265EB4503317867F37E
:10184000000131700021716052EA030102D1F8BD3C
:101850000027F3E7D6E901104C1C746020F8112032
:10186000120C42EA03421B0CEEE72DE9F3418DED29
:10187000010A019C0378E20F62F300030370C4F3D2
:101880000F4313F4FF43074608D13B786FF300037F
:101890003B7000237B6002B0BDE8F081B3F5FF4FE1
:1018A000F3D0C4F3C753A3F17F05002DEDDB05D1C1
:1018B000012102B0BDE8F041FFF752BFB3F16F085C
:1018C00048BFA3F16008C4F31604162D4FEA281888
:1018D00044F4000421DCC5F11705EC4000252E4638
:1018E00041463846FFF7E2FEC7F8048026B1B868E3
:1018F0007200002122F0BCFC45B1BB6804FA05F27D
:1019000023F81620C5F11005EC400136B045C2D0D1
:10191000BB6823F81640240CF7E7B3F1960605F1EF
:10192000090548BFA3F1870605F00F053611D7E773
:101930002DE9F84304468F18C2F35B020D46511C93
:101940009846089EFFF7B2FE237868F300032370E1
:101950000023636029461FFA86FCB942084602D379
:10196000401BBDE8F8830278A2F13003092B01F196
:10197000010105D9A2F14103192B14D8A2F13703B3
:10198000B342EDD2D4E901E0F0468146B8F1000F50
:1019900010D100EB4E0213B120F81E300232121AA1
:1019A00052106260D9E7A2F16103192BD8D8A2F1D5
:1019B0005703E5E7B9F8002002FB0C3329F8023B96
:1019C00008F1FF381B0CE1E7F8B5044615461E4642
:1019D000C1B1531E1E444FF0FF37E9000F31090912
:1019E0002046FFF763FE237800216FF30003237086
:1019F00061604DB9D4E9011000EB4101FFF7A7FD8B
:101A00006060F8BD0127E8E700230F2908DC327881
:101A10008A401343013D9BB201F108013E44F4D1D9
:101A20006268501C6060A068103920F81230E0E74E
:101A300038B50B780578044603F0010305F0010082
:101A4000181A08D1D1E90132D4E90110FFF762FE7A
:101A5000EB0748BF404238BD884210B5044601D06C
:101A6000FFF7A8FE23786FF30003237010BD8842B0
:101A700010B5044601D0FFF79DFE63683BB12378A3
:101A8000C3F30002C2F1010262F30003237010BD30
:101A900088421FB5044601D0FFF78CFE626862B928
:101AA00001212046FFF702FEA26801231380636034
:101AB000237843F00103237010E02378D9070FD572
:101AC000A1686FF3000323700123ADF80E3000937B
:101AD00008460DF10E03FFF78FFD606004B010BDE6
:101AE000511C2046FFF7E2FDD4E901210123ADF8A6
:101AF0000E30009308460DF10E03FFF752FD6060B3
:101B0000D6E72DE9F8434B6805460E46144603B167
:101B10002AB931462846BDE8F843FFF74BBE02F12B
:101B20000F014FEA111803EB1111FFF7BFFDD6E9C2
:101B3000013108EB0307A86807F1004214F00F0415
:101B400002F1FF3208BF102400EB420001EB430E0C
:101B5000814619464FF0000CC4F11004E9B96FF04A
:101B6000010253432CFA04F4C218C452C8F1010311
:101B700002EB430308F1FF321846520022F078FBD3
:101B8000831E17B133F817209AB16F6032782B7823
:101B900062F300032B70BDE8F8833EF8022D42EAA1
:101BA0000C0C2CFA04F229F802294FEA0C4C0139EA
:101BB000D4E7013FE5E7F0B50E46496885B0054634
:101BC000144601B132B93146284605B0BDE8F040AF
:101BD000FFF7F0BDFFF76AFDD6E901212346A868AB
:101BE000FFF7C1FC686032782B7862F300032B703A
:101BF000DB072DD500237168ADF80E30220999421C
:101C000001D093420FD1914222D9B36804F00F045E
:101C100033F81220012303FA04F4013C224213D0CA
:101C2000ADF80E3008E0B76837F8137057B10123EC
:101C30009142ADF80E30E8D8A968012350B90B8065
:101C40006B6005E00133DAE7BDF80E30002BF3D10D
:101C500005B0F0BD009302460DF10E030846FFF7F4
:101C6000A0FC6860F4E773B50C4616460546D2E959
:101C70000132D1E90110FFF74DFD0028BEBF234618
:101C800034461E462378327861685340DB071BD404
:101C900001312846FFF70AFD73680093D4E901215A
:101CA000B368A868FFF77DFC686023786A68C3F3AF
:101CB0000003002A0CBF002303F001032A7863F31A
:101CC00000022A7002B070BD2846FFF7EFFC73686F
:101CD0000093D4E90121B368A868FFF78DFCE3E71E
:101CE000F7B50D4616460446D2E90132D1E9011096
:101CF000FFF710FD0028BEBF2B4635461E462B7849
:101D00003278696883EA0203B4BF01270027DB0742
:101D100014D501312046FFF7C9FC73680093D5E95B
:101D20000121B368A068FFF73CFC6060626823781B
:101D300082B962F30003237003B0F0BD2046FFF7C1
:101D4000B5FC73680093D5E90121B368A068FFF77B
:101D500053FCEAE72A7802F00102002FE9D0C2F131
:101D60000102E6E72DE9F04F15464A686B689A4292
:101D70000E463EBF2E460B461D4633787168DB0784
:101D800085B0044621D42B7813F001071DD1FFF74D
:101D90008DFCD5E9011CA068B6683B4699420BD181
:101DA00000EB4101FFF7D3FB237860606FF3000382
:101DB000237005B0BDE8F08F36F813203CF81350BF
:101DC0002A4020F813200133E8E701312046FFF7CD
:101DD0006DFC96F800A02B78D6F804C0A0688AEABB
:101DE0000307FF4307F0010E47F30007BFB2D5E931
:101DF00001120AF001084AF3000A02971FFA8AF753
:101E000003F00109019743F30003B7689BB2A1EB0C
:101E10000C01A7F1020A0093674683460391BFB9FC
:101E200000EB4C01BEF1000F03D0012320F81C3061
:101E30000231FFF78CFB606033782A78C3F300032C
:101E4000C2F300021340227863F300022270B0E76D
:101E50003AF8021F019B5940039B013F8844D9195E
:101E6000B9429BBF32F8021B009B0099594089443C
:101E7000029B08EA090159401EFA81F12BF8021B66
:101E80004FEA19494FEA18484FEA114EC7E72DE9C2
:101E9000F84F16464A6873689A420D463EBF35466B
:101EA0000B461E462B786968DB07044631D432782E
:101EB00012F001072DD1FFF7F9FBD6E9013EA96821
:101EC0006D68D4F808C0ED1A3A46934212D101EB7E
:101ED000430100220CEB4303954214D103EB45036D
:101EE000A3EB0C035B10636023786FF30003237094
:101EF000BDE8F88F31F812003EF8126030432CF83C
:101F000012000132E1E731F8120023F81200013229
:101F1000E2E701312046FFF7C9FB2A783378696888
:101F2000A068AD68D6E901E702F0010803F00109F5
:101F300042F3000243F30003A5F1020C92B29BB2FC
:101F40000E4682460125AEEB010E46B900EB41017B
:101F5000FFF7FDFA2378606043F00103C7E73CF820
:101F600002BF013E8BEA020BD8440EEB060BB345D1
:101F700096BF37F802BB9B468BEA030BD94448EA6D
:101F8000090B6FEA0B0B15FA8BF52AF8025B4FEA87
:101F900019494FEA18482D0CD7E7F0B516464A689C
:101FA00073689A4238BF0B460C463CBF34461E4607
:101FB0002778337861685F4017F0010785B00546E0
:101FC0003AD1FFF773FB237813F0010328D1D6E948
:101FD000012C6168A868A768891A9A4211D107EB99
:101FE0004207002300EB4202994213D102EB410168
:101FF000FFF7ADFA2B7868606FF300032B7005B024
:10200000F0BD37F813403CF81360744020F81340DB
:102010000133E2E737F8134022F813400133E3E7D6
:10202000CDE90277019773680093D4E90121B36881
:10203000A868FFF707FBDDE70131FFF737FB3378CF
:10204000A868DB4303F0010303932378DB4303F029
:10205000010302930123019373680093B368D4E9E9
:102060000121FFF7EFFA2B78686043F00103C5E721
:102070002DE9F04F4B6885B004460E4615460BB16E
:10208000536843B923786FF3000323700023636020
:1020900005B0BDE8F08F81422ED1FFF71CFBA542B1
:1020A0000646074600D105466B687168204619440C
:1020B000FFF7FCFA2268A068C2F39D0252000021DB
:1020C00022F0D6F8B368D4F808E0D6F8049001936B
:1020D000AB68029300226B6803930EEB4908F44649
:1020E0001146039B934231D0DDF804B0CDF8009047
:1020F000ACF10200002318E0824204D1FFF7EBFAB2
:1021000005460746D0E70027CEE730F802AF534434
:102110001946029B3BF802AB33F8123003FB0A135B
:102120000099038001391B0C009100990029ECD122
:102130004146881C13B1A8F800300146A1EB0E01FE
:1021400049100CF1020C01328046CAE761602A781E
