:020000040800F2
:10000000F8BF0120096206082B6606081966060873
:100010002D660608396606084566060800000000D9
:10002000000000000000000000000000516606080B
:10003000536606080000000069680608A9920508D2
:10004000010003083D67060849670608516706086E
:100050003D2F060801000308D1660608D76606088A
:10006000DD660608E3660608E96606088DDB050816
:100070009DDB0508ADDB0508BDDB0508CDDB05080C
:10008000DDDB0508EDDB05080100030800000000CA
:10009000000000000000000000000000EF660608FD
:1000A000656706086B6706087D67060883670608AC
:1000B000896706088F67060895670608C7670608F8
:1000C000CD670608D3670608D9670608010003084C
:1000D00001000308B5670608BB67060800000000BA
:1000E00013670608436706086166060800000000FB
:1000F000000000000000000000000000FDDB05081B
:1001000000000000010003089D67060801000308C5
:1001100000000000000000000000000000000000DF
:100120000DDC05081DDC05082DDC05083DDC050897
:100130004DDC050800000000000000000000000089
:1001400000000000000000000000000055660608E6
:100150005DDC05086DDC05087DDC0508C167060867
:10016000DF670608E56706080000000000000000E1
:10017000000000000000000000000000000000007F
:100180000000000001000308000000000000000063
:0801900001000308010003084F
:020000040803EF
:10000000FEE70000024B5A6912685A61704700BF50
:1000100024000020C460056146618761C0F81C802F
:10002000C0F82090C0F824A0C0F828B0C0F82CD0A8
:1000300080ED0C8B80ED0E9B80ED10ABC0F808E0DE
:1000400000F0CCBC30B51C4CD4E9A353C01AC10994
:10005000C0F3021E6B5C012202FA0EF223EA0203D5
:100060006B54D4F8982283094FEA101CB2EB901F0E
:10007000D4F8840288BFC4F89832C15C4FEA9C0E61
:100080000CF0030303255B0005FA03F321EA0303E5
:1000900000F80E300CF1010CD4F884024FEA9C0EEB
:1000A0000CF0030310F80E105A0041FA02F202F0AD
:1000B0000302022AE7D030BD24000020054A03468F
:1000C000506A1A6841688A4202D3521A1A6070470D
:1000D0000068F7E7240000207F289DBF024B185CD2
:1000E000C0F3400000207047B89F06087F289DBFDE
:1000F000024B185CC0F3C00000207047B89F060890
:100100007F289DBF024B185CC0F380000020704721
:10011000B89F06087F289DBF024B185CC0F30010F3
:1001200000207047B89F06087F289DBF024B185CCF
:10013000C0F3401000207047B89F060808B502467B
:10014000FFF7E8FF00B12032104608BD08B50246AF
:10015000FFF7EAFF00B1203A104608BDD0E90232AD
:1001600093423DBF5A1C826018784FF0FF307047B1
:100170000369272B2BD0222B29D0A3F1620113294D
:100180001ED8174ACA40D2071AD54269272A1ED05C
:10019000222A1CD0722B1CD1662A06D18269272AFA
:1001A00015D0222A13D0722B15D14369622B0CD1A2
:1001B000806927280BD0A0F122035842584170478C
:1001C000662BF0D14269722AE8D0002070470120E6
:1001D0007047662BF6D0622BF7D14369722BE6E7A6
:1001E0001100090002690A2A10B5044635D1836A54
:1001F000013383620123A269E36263696261226F52
:100200002361002A31D0616E8A423FBF501CA16E2B
:1002100020678A5C28BF0022A2613BB9E2692261A3
:10022000226A6261626AA2616366236763690D2B59
:1002300008D1A3690A229342626103D1D4E9010380
:100240009847A061A369013306D163695A1C03D0A2
:100250000A2B1CBF0A23A36110BDC36A092A04BF6D
:10026000073323F007030133C5E7D4E901039847B7
:10027000A061DBE770B504460D4600262269531CD9
:1002800001D1304670BD0A2A08D115B1636B002B2D
:10029000F7D02046FFF7A6FF0126EFE71046FFF74D
:1002A0001BFF18B12046FFF79DFFE7E7232A08D17F
:1002B0002046FFF797FF23695A1CDFD00A2BF7D19E
:1002C000DCE75C2ADDD163690A2BDAD12046FFF72F
:1002D00089FFE7E710F001021CD110F003030CD0F6
:1002E00000F00F03062B15D00A2B11D100090E3890
:1002F00003288CBF00200120704770B102793A2A90
:1003000008D02D2A08D18068B0FA80F040097047E3
:10031000104670470120704718467047C20702D543
:1003200040F001007047830710D0030900F00F0070
:10033000062803D1D80040F002007047A3F10F0057
:10034000022809D8064B53F82000704730B10379D2
:100350003A2B03D1806870470248704702487047C3
:10036000CC9C0608B8AA0608C0AA0608D0E9043240
:10037000013B036152F8230070470369C9431944E4
:10038000436953F82100704731B1826801F00303DB
:10039000134304BF0B6883607047036A1B8B012BF8
:1003A0001EBFC3685B18C3607047836A10B50446FC
:1003B0009B6F406A9847238B226A0133918C9BB2D2
:1003C0009942238338BF938410BD038B10B5013B42
:1003D0000383836A0446D3F88030406A98472046F6
:1003E0000121BDE81040FFF7D8BFF7B51E4659B14F
:1003F00011F0030511D14F68FCB294420DD13F0AB0
:1004000001F10804BD4201DB03B0F0BD54F8041B48
:1004100001900135B0470198F4E7334603B0BDE8D9
:10042000F04018472DE9F04F2DED028B044608EE01
:10043000102A83B00D4698461BB1CB8A43F00803BF
:10044000CB8218EE103AEB83236ADA8A42F030024C
:10045000DA821B78002B4CD1A36A606AD3F8B060B3
:1004600018EE102A43462946B44603B0BDEC028B71
:10047000BDE8F04F6047DB6A03EBC60B13F836307C
:10048000053B012B1DD84FF0000917E0EB6A03EB89
:10049000C90213F83930062B0ED1DBF8041053686B
:1004A000994209D1A36ABBF802201B69606A1F4602
:1004B0000023B8470AF1010A09F101092B8D4B45C8
:1004C000E4DC0136236A1A8DB242D4DCBAF1000FA3
:1004D000C2D0A36ACDF80080D3F8B460606A18EE89
:1004E000103A52462946B04703B0BDEC028BBDE836
:1004F000F08F0026B246E5E7F8B504460E461146F1
:100500001A46002385780769837003610E4BFFF755
:100510006CFF6368BBB9618A51B1228A42B9A36A90
:10052000606AD3F89C309847A36A606A1B6C98474E
:10053000238A628A31462046FFF774FF003D18BFC8
:100540000125A5702761F8BD11420308024B896897
:100550009D22FFF74ABF00BFC5420308024B8968CE
:100560006B22FFF742BF00BF6D150308836A10B509
:100570000446D3F88430406A00219847A36A606A31
:100580001B6B10219847A36A606AD3F8C830012119
:10059000984720460321BDE81040FFF7FEBE38B55E
:1005A000836A04465B6C406A00229847A36A606ACB
:1005B000D3F8BC5000231A461946A8472046BDE888
:1005C0003840FFF7D3BF836A89681B6D406A0022F9
:1005D00009091847836A8968DB6B406A184700007D
:1005E0000F302DE9F84306095AD0684C2389002BB7
:1005F00056D1B4F82433002B0D460CBF4FF0010E3A
:100600004FF0000E50D1D4F89802D4F88872874287
:1006100039D9D4F884C2411E614400221AE0013263
:10062000964251D913F00C0F1ED10132964240F27E
:10063000A48013F0300F1CD10132964240F2A0800A
:1006400013F0C00F1AD10132964240F29C80013063
:10065000B84218D211F8013F13F0030FDFD013F0A6
:100660000C0F4FF00002E0D013F0300F4FF00002FB
:10067000E2D013F0C00F4FF00002E4D00130B842D6
:100680004FF00002E6D3BEF1000F09D12EF01AFAA6
:10069000D4F89802D4F8887287424FF0010EB8D887
:1006A00000231846BDE8F883D4E9CA239A42AAD3A6
:1006B0002EF008FAD4F89802D4F88872B84238BFFD
:1006C0004FF0010EA5D3EBE78000012A02BF431CC7
:1006D0009B08C4F89832D4F89C32811A4F1C83428C
:1006E00038BF03464FEA970EC4F89C3207F0030365
:1006F0001CF80E904FEA43080123023103FA08F375
:1007000043EA090388420CF80E3013D34FF0020875
:100710004FEA910CD4F884E201F003031EF80C9028
:100720005B0008FA03F3013143EA090388420EF83B
:100730000C30EDD2D4F82833D4F890823344C4F886
:10074000283308EB071318461201002135F0DAFDB3
:100750003E010346002DA4D00022D4F88C0248F8B4
:100760000620F9080122445C07F0070702FA07F7A0
:10077000274347541846BDE8F88380000130A4E7BA
:1007800080000230A1E7800003309EE724000020B3
:100790002DE9F84F88460646002800F0AC80002975
:1007A00072D0594D2C89002C72D1D5F89012D5F801
:1007B0008872411A0B09581C08F10F0EB0EB870F15
:1007C0004FEA1E1E4FEA870AA44680F09A80D5F8A9
:1007D00084920127840800F0030B19F804404FEAC3
:1007E0004B0B44FA0BF404F00304022C54D02CB944
:1007F0000CF1010C0CEB0704A6454ED8BE453FD0CA
:100800001ED3BC44E6454CD9002A41D0D5F88C22F1
:10081000C90903F00703515C1941404601F0010189
:10082000FFF7DEFE044698B33A01314635F026FD67
:100830002B8933BB3046FFF705FC2046BDE8F88F17
:100840009E4470463B444FF003084FEA900CD5F8A5
:10085000841200F0030211F80C40520008FA02F270
:10086000013024EA0202984201F80C20EDD1D5F8BB
:1008700098324FEA9E02B3EB9E0F88BFC5F89822CC
:1008800034462046BDE8F88F1F4B1C89002CD2D07F
:1008900000242046BDE8F88F01370130824599D108
:1008A000ACE703EB0E013B44994211D94FF002082B
:1008B0009808D5F8844203F0030214F800C05200EF
:1008C00008FA02F2013342EA0C0299422254EFD1B3
:1008D000D5F89C32AEEB07028B4238BF0B461201B3
:1008E00006EB071034460021C5F89C3235F00AFDAE
:1008F0002046BDE8F88F01464046BDE8F84FFFF7B7
:100900006FBE01277AE700BF240000200846114689
:1009100026F04ABD38B505460C46FFF7DBFC38B17A
:100920002846FFF7FBFC0BF0C1FD031B5842584162
:1009300038BD10B4026A0446407801280B4604D141
:100940005DF8044B104606F031BDA16A606A5DF89F
:10095000044B183106F039BD10B4026A04464078E1
:1009600001280B4604D15DF8044B104606F01EBD6D
:10097000A16A606A5DF8044B203106F026BD492368
:10098000482232F0C5BE4F234E2232F0C1BE0000D5
:100990000F49D1F8883043F47003C1F888300D4B0B
:1009A0001A68002042F001021A6098601A6822F06A
:1009B000847222F480321A60074A5A601A6822F45C
:1009C00080221A60D8604FF000638B60704700BFD0
:1009D00000ED00E00038024010300024024B5A695C
:1009E000026058610020704724000020044A936987
:1009F0001968916110B15A6818461047704700BFD6
:100A00002400002010B500210446FFF7E9FD18B9C5
:100A100014B120460DF038F910BDF8B5446A064609
:100A20000D46BCB1D4E900132B448B4223D905F108
:100A30000803002219442046FFF7AAFE0246B8B96F
:100A4000616820460831FFF7A3FE63682360336ABC
:100A500063603462802D2F4638BF802707F108007D
:100A6000FFF7D0FF0023076043600446706202E096
:100A700023682B4423606068054465600834204483
:100A8000F8BD38B50D460C211446FFF7C6FF4FF4EC
:100A90009D72C0E90124056038BD00002DE9F041D8
:100AA000064630200D4690461F46FFF7ABFF072D48
:100AB00004460570C0F80C8001D0012D1ED1D8F875
:100AC0000820C2F30F12A2821020FFF79BFF0378C9
:100AD000012262F30203037004232061E38427836D
:100AE0002020FFF78FFF336A63600023A360F36960
:100AF000E06233B9F4612046BDE8F081044B5A5DF1
:100B0000E1E71A469B68002BFBD19460F3E700BF36
:100B1000F8F8060870B513464278012A05460C46D7
:100B200004D10A460721FFF7B9FFA061A669E26870
:100B3000284646233146FFF7DFFCB08A70BD036AC2
:100B400010B51A8B0446FFF7E5FF01462046BDE8C5
:100B50001040FFF7EEBE70B54378012B05460C46FA
:100B600006D1036A0A461B8B0221FFF797FF20611B
:100B7000A268216928464C23BDE87040FFF7BCBC41
:100B80000021FFF72DBD10B501210446FFF728FD18
:100B900010B920460DF078F810BD10B501220C46B2
:100BA000FFF7F6FD18B914B120460DF06DF810BD31
:100BB000F8B504461D46D0E9000383420F461646A9
:100BC00008D31030C100A068FFF7E7FF2368A060DA
:100BD00010332360D4E90103421C626053F83010E3
:100BE00067F3170143F8301003EBC002D67055606D
:100BF000F8BD10B48469CAB20023616C5DF8044B7F
:100C0000FFF7D6BF38B5D0E903329A4204460D4605
:100C100008D3103399004069FFF7BFFFE3686061B4
:100C20001033E360D4E90432591C216142F82350A7
:100C300038BD2DE9F04105460F461446164696B9D3
:100C40003146204614F0A2FE014600F10808ACB976
:100C50000A4628463946FFF714FF01462846FFF7A3
:100C6000D1FF012008E0013E31462846FFF785FB11
:100C7000FFF730FB0028E2D1BDE8F0812846FFF7FE
:100C800075FB0646FFF74AFB013C48F82400002E9E
:100C9000DDD0B307DBD1686A00F108039E42D6D3EA
:100CA000426813449E42D2D273681B0A0233A2EBFD
:100CB00083034360CBE70000024A138901331381A9
:100CC000704700BF24000020024A1389013B1381B2
:100CD000704700BF240000202DE9F0432A4C002576
:100CE0004FF0030CD4F884620021013143189A08B4
:100CF00003F00303B25C5B0042FA03F303F0030367
:100D0000022BF2D0D4F89032090103EB00108E08C8
:100D100089B300EB860603681A0729D1D4F890122C
:100D20005A1AC2F3011E99424FEA92174FEA4E0E29
:100D30004FEA12121CD8D4F89412994218D9D4F858
:100D4000849219F8078048FA0EF303F003030CFAB3
:100D50000EF1012B41EA08010AD104EB450E3F2DAB
:100D600009F807109ABF0135AEF8A422C4F8A032E2
:100D70000430B042CFD12DB1013D04EB4503B3F8AF
:100D8000A402AFE7BDE8F0832400002070B5184E40
:100D9000D6F8A032DBB1D6F8883200259800C6F824
:100DA000A052A0B10024D6F88412A20804F00303D4
:100DB0008A5C5B0042FA03F303F00303032B07D0C2
:100DC0000134A042EFD8D6F8A032002BE7D170BD95
:100DD0002046FFF781FFD6F888320134B4EB830F49
:100DE0004FEA8300DFD3D6F8A032002BD7D1EEE74D
:100DF000240000202DE9F04F644FD7F88832D7F84F
:100E00009C22B2EB830F34BF02F101084FEA830842
:100E100097B0B8F1000F00F09F800025AB46AC46BC
:100E2000032304E0012A29D00135A8451CD0D7F8B6
:100E30008402AE0805F00304815D640041FA04F207
:100E400002F00302022A00EB950E12D0032AE9D128
:100E5000022202FA04F4AB46013521EA0401A84556
:100E600081554FF0000CE2D1C7F89CB217B0BDE835
:100E7000F08FBCF1000F5ED1AB46D5E7D7F88C22DE
:100E80004FEAD50A05F0070912F80AC04CFA09F032
:100E9000C00702EBD5024ED5D7F890022901415880
:100EA00000EB051000293AD002AAB2210CF082F919
:100EB000029A032372B3EFF3108172B6B7F8F421EC
:100EC000130443BFB7F8F42102F1FF3212B24FF618
:100ED000FF72A7F8F42181F31088029A0399019216
:100EE00004A80091FFF796F800283BD1DDE9001235
:100EF00010460CF08BFBFFF785F80323EFF310810E
:100F000072B6B7F8F421013212B2A7F8F421DAB1BF
:100F100081F31088D7F88C2212F80AC052440121BC
:100F200001FA09F92CEA090C82F800C0D7F88422EA
:100F3000915D02EB060E03FA04F421EA04018EF837
:100F400000104FF0010C6FE7FA698AB10022A7F890
:100F5000F42181F31088DDE7C346C7F89CB217B0CF
:100F6000BDE8F08F05990A480FF058FB0323C5E749
:100F7000D7F8F821002AE9D197F80022002AE5D114
:100F80004FF00102A7F8F421C2E700BF24000020BF
:100F900034AE060881B3F8B5041F184E04EB810582
:100FA000032754F8043F1A071AD1D6F89022981A4A
:100FB000C0F301119A424FEA901C4FEA41014FEAF7
:100FC00010100DD8D6F894229A4209D9D6F8842266
:100FD00012F80CE04EFA01F303F00303012B02D0E8
:100FE000A542DED1F8BD07FA01F141EA0E0102F88F
:100FF0000C10FFF771FEF3E7704700BF24000020DC
:1010000070B51C4ED6F8A032DBB1D6F88832002578
:101010009800C6F8A052A0B10024D6F88412A20805
:1010200004F003038A5C5B0042FA03F303F003035A
:10103000032B0FD001348442EFD3D6F8A032002B1B
:10104000E7D1FFF7D7FE33890022013BC6F898228B
:10105000338170BD2046FFF73FFED6F88832013459
:10106000B4EB830F4FEA8300D7D3D6F8A032002B1E
:10107000CFD1E6E724000020394BD3E9A4122DE9B3
:10108000F047521A0024D3E9A161C0E90144C0E944
:101090000344C0E9054402604FEA810CA646274696
:1010A00025462246A1462146A04616F809304900A9
:1010B0000B4103F00303012B47D0022B41D0002B3F
:1010C00038D0013294450ED04FEA920902F0030164
:1010D00016F809304FEA410A43FA0AF313F0030302
:1010E00001D0012BE1D1012D11D0022D02BF4169A8
:1010F000013141618169A94238BF856194450FD0B2
:10110000012B26D04FEA920902F00301CDE70169D5
:10111000013101618169A94238BF85619445EFD1F0
:10112000474500D9C76024014FEA0E13C0E90143C7
:10113000BDE8F0870EF1010EC0F808E001371D464A
:10114000BFE7013444600135BBE7013444601D460C
:10115000B7E7B84501D2C760B8460027D2E700BF5D
:1011600024000020034B1A8912B908B1FEF76ABFA8
:10117000704700BF24000020036810B5044613B177
:101180004068FFF7EFFF2046BDE81040FFF7EABFD9
:10119000014441F20553884204D398B2012838BF74
:1011A0000120704710F8012B03EB43135340F2E783
:1011B0002DE9F04780460E46FFF7EAFF124B5C6AC6
:1011C00007460CB920461AE0D4F80C90002504F12B
:1011D000180A4D4501D12468F3E7236933F8153027
:1011E000BB420ED163695B5DB3420AD15AF8250058
:1011F0003246414635F0AEF818B960682844BDE87B
:10120000F0870135E5E700BF240000202DE9F84311
:1012100081460E46FFF7CCFF0246002840F08B8047
:10122000FF2E03D9454946480CF022FD454CD4F821
:10123000DC01751C90B1D4E978132B448B4229D979
:101240002944FFF7A5FA0746D8B90246D4F8E411B5
:10125000D4F8DC01FFF79CFAC4F8DC71802D2F462E
:1012600038BF80273846FFF78BFCC4F8DC01D0BBC1
:101270002846FFF785FCC4F8DC0198BB28460CF033
:1012800003FDD4F8E0312B44C4F8E031D4F8DC316C
:10129000002BE3D0D4F8E431D4F8DC7131461F449C
:1012A00048462B44C4F8E431FFF772FF49468046B4
:1012B000324638464FF0000934F0E0FF07F8069058
:1012C000636AD3E90253AB4225D36D000A2D38BFC0
:1012D0000A25C5EBC5001830FFF752FC48B9C4F821
:1012E000DC01CBE72F460023C4F8E071C4F8E431F9
:1012F000D0E700F11803626A026003EB8503036123
:1013000003EB450343615368D268C0F80C90134463
:10131000C0E901356062636AD3E903215B6921F8A2
:1013200012809E54911D636A43F82170D9685868F1
:101330000131D96002441046BDE8F883BC6F06084D
:10134000FCD4060824000020F7B5866996F84C20E6
:10135000092A05460F461FD1D6E91510FFF756FF9B
:10136000902F04460ED1C100002241F0020105F188
:1013700028000BF0F9FD28B14268D30720D542F0D0
:10138000010002E0200140F002000146284603B0BF
:10139000BDE8F040FFF736BC0A2A07D10022D6E9A3
:1013A0001510334609F016FE0246E6E70B2A0CD16B
:1013B0000096D6E915100023012209F003FF02462A
:1013C000716C2846FFF75DFBDFE70C2A13D1D6E9E5
:1013D00015100A2906D8FFF719FF30B1000140F0B7
:1013E0000600D2E7FFF7E4FEF7E7D6E91521074844
:1013F00012F098FBE3E70D2A04D1D6E9151012F09C
:10140000CBFBDCE7120142F00A00BEE7F0D606088B
:1014100007B5019001A8FEF751FE019A036933F860
:10142000120003B05DF804FB07B5019001A8FEF7B8
:1014300045FE019B4269D05C03B05DF804FB07B533
:10144000019001A8FEF73AFE019B063350F82300F5
:1014500003B05DF804FB13B5019001A80C46FEF73C
:101460002DFE019B4269D25C2260063350F82300B6
:1014700002B010BD2DE9F04F85B0054600AF0C4617
:1014800011B90121116015E011F003081BD10B798E
:10149000682B07D1CB681B0913608C68002CF0D037
:1014A0004FF0010804F00F03022B0FD12109B8F10E
:1014B000000FE7D0AB6A686ADB6A002298471437EE
:1014C000BD46BDE8F08F4FF00008EBE7B8F1000F24
:1014D00002D1A3681B091360666804F1080A360A82
:1014E00006F1FF3BD1460AEB860659F8040B0009CA
:1014F000FFF79AFFB1458344F7D10BF1070323F0BF
:101500000703ADEB030D6B4699465AF8040B3B609D
:1015100007F10C010009FFF79EFFFA687A600146A7
:10152000484634F0ABFE7A683B68B245914418D126
:1015300059461846FFF76AFEAB6A0146DB6A686ADD
:1015400000229847B8F1000FB9D00C34A642B6D0AB
:1015500054F8041BAB6A686A1B6D0022090998479E
:10156000F4E74FF02E0209F8012BCEE7836A37B576
:1015700004460D465B6B406A00219847A36A606A87
:101580001B6B1021984701AA29462046FFF772FFDE
:1015900001992046FFF7CDF903B030BD2DE9F047A2
:1015A0002C4DDFF8B480D5F884C20024D5E9A46EB0
:1015B00004600C6014601C606C6A0CB1444505D179
:1015C0001968126811441960BDE8F0870568D4F8FD
:1015D0001490013505600D68E7683D440D60E568CD
:1015E00009EB050AD1452CD314F00F0730D1B442D2
:1015F00022D3744520D2A51B4FEA95194FEA151A3C
:101600001CF80990C5F301156D0049FA05F505F0C0
:101610000305012D10D101370AEB07054FEA9509A3
:1016200005F003051CF809906D0049FA05F505F071
:101630000305022DEFD03F011D6824683D441D6065
:10164000BBE715686F1C19F8015B2F441760C9E7E9
:101650000027F1E72400002000D2060830B500235F
:10166000202411F8012F0AB9027030BD120600F1D2
:1016700001051FD50BB1047028460B78124A03F000
:101680007F036BB9013A12F8013F13F0800F054652
:1016900000F101000BD003F07F032B700123E0E782
:1016A00012F9015B002DFBDA013BDBB2E9E700F840
:1016B000013CE8E7012B04BF047028460B7800F8D2
:1016C000013B0223CDE700BFC46F060838B50129EE
:1016D000044638BF01210025084621606560FFF7F8
:1016E00091F92573A06038BD38B505460C46013127
:1016F000FFF7ECFF6C6038BD037B10B5044613B9EF
:101700008068FFF72FFD0023A36010BD10B50446CD
:1017100090B1C3684068984704F15000FFF7ECFFB0
:1017200004F16000FFF7E8FF206CFFF71BFD204687
:10173000BDE81040FFF716BD10BD000038B5037BB3
:1017400004460D461BB1074800210CF091FA0168D0
:1017500080682944FFF721FA2368A0601D442560B2
:10176000184438BDFCD4060838B5446803682144E1
:101770009942054610D9037B1BB1084800210CF0A3
:1017800077FA01F1100424F0070408348068214638
:10179000FFF703FA2C60A86038BD00BFFCD4060830
:1017A00070B504460E4611461546FFF7DDFFD4E935
:1017B00001302A463146184434F090FD62682A44CC
:1017C000626070BD38B504460D46FFF7CDFFD4E921
:1017D00001301D446560184438BDD0E900239A42A9
:1017E00010B5044602D10121FFF7A8FFD4E9013268
:1017F0000021D154A06810BD10B50C460121FFF79F
:10180000E1FF047010BD7F29F8B50C46CEB204D8B4
:101810000121FFF7D7FF0670F8BD06F03F06B1F5CE
:10182000006FC1F3871546F0800607D20221FFF74B
:10183000C9FF65F03F0505704670EDE705F03F050F
:10184000B1F5803FC1F3073745F0800508D2032189
:10185000FFF7B8FF67F01F07077045708670DBE77A
:101860000421FFF7AFFFA40C07F03F0764F00F045B
:1018700067F07F07047047708570C670CCE713B5BA
:1018800004460846019134F077FD0199024620464E
:1018900002B0BDE81040FFF783BF43688B422CBF06
:1018A000591A0021416070472DE9F04F426E85B012
:1018B0008046FAB1026FEAB929216030FFF79CFF38
:1018C000D8F81020C8F81C20D8F81420C8F8202018
:1018D000D8F81820C8F82420D8F868201178C8F85B
:1018E00010105178C8F814109278C8F81820032204
:1018F000C8F870200021C8F854104046FEF7BAFC22
:10190000D8F83060D8F82820D8F82C40C8F84420FF
:10191000002EC8F8484008DA082288F84C20013622
:10192000C8F8306005B0BDE8F08F04D0072288F811
:101930004C20013EF4E7002840D0D8F83420EABB20
:10194000062288F84C20D8E90F206FF00041551886
:10195000013C30F81550AC42E4D023D9D8F8381007
:101960008A420AD308314900FFF717F9D8F838201E
:10197000C8F840000832C8F83820D8E90F21501CB8
:10198000C8F83C0021F81240D8F830200132C8F8DD
:101990003020C7E7013AC8F83C20D8F83020013A97
:1019A000C8F83020D8F83C20551830F81550AC4213
:1019B000F0D3B7D0022288F84C20B3E7D8F8105003
:1019C0006C1C01D10022F6E74046FEF7D1FB0190E6
:1019D000002800F0F581002288F84C20D8F810206B
:1019E000752A53D0622A08D1D8F81420722A52D10D
:1019F000019F02250D22002413E0722A07D1D8F896
:101A00001420622AF4D0662A49D10522D3E7662A37
:101A100049D1D8F81420722AF7D0019C01250C2254
:101A2000002798F84C1000293FD188F84C203DB190
:101A30004046FEF7D7FB022D02D14046FEF7D2FB0F
:101A4000D8F810204046222A14BF4FF0270A4FF042
:101A5000220AFEF7C7FBD8F81020524528D1D8F843
:101A60001420924524D14046FEF7BCFB4046FEF7C9
:101A7000B9FB4FF0030924B1BC4908F16000FFF73E
:101A8000FEFE4FF0000B08F1500538E00125002460
:101A90000C222746C5E701250D220024C0E7019F3F
:101AA00001250C22A7E73546F1E79142BFD039E77F
:101AB0004FF00109DFE7924518D008F1600BD8F824
:101AC00010100CB17B2937D05C2940F06E81404664
:101AD0000291FEF787FBD8F810B00299002F00F0B2
:101AE0008A802846FFF78FFE594632E15146284644
:101AF0000BF1010BFFF787FE4046FEF773FBD8F8AA
:101B00001020511C00F05681B9F1010F02D10A2AB0
:101B100000F05081CB45CED3594608F15000FFF775
:101B2000BCFE01214046FEF7A5FB4046FEF720FB28
:101B300000287FF453AFF5E64046FEF753FBD8F894
:101B400010107B290AD12846FFF756FE4046FEF7C3
:101B500049FB7B212846FFF74FFEB0E72821584676
:101B6000FFF74AFED8F864300022D8F81010481C5D
:101B700011D052BB3A290ED07D290CD0212924D175
:101B8000D8F814007238012824D8D8F818003A2858
:101B900001D07D281ED1D8E91921881810F8010C30
:101BA0003D2809D1D21A19442846FFF7F9FDD8F883
:101BB0006420013AC8F8642058462921FFF71CFE2A
:101BC0002C215846FFF718FEC3E721F020005B28C0
:101BD0000CD10132C9B25846CDE90232FFF70CFEF2
:101BE0004046FEF7FFFADDE90232BEE75D2808BF96
:101BF00002F1FF32EEE7BBF1780F09D8BBF15B0FC2
:101C00000ED8BBF1220F79D057D8BBF10A0F51D0B3
:101C1000ABF13001072900F2C2804FF0030BB5E0B1
:101C2000ABF15C021C2AF3D801A353F822F000BFE9
:101C3000FD1C0308111C0308111C0308111C0308D8
:101C4000111C0308A51C0308D91C0308111C030858
:101C5000111C0308111C0308E91C0308111C0308CC
:101C6000111C0308111C0308111C0308111C030894
:101C7000111C0308111C0308E11C0308111C0308B4
:101C8000111C0308111C0308D51C0308111C0308B0
:101C9000DD1C0308ED1C0308E51C0308111C0308E8
:101CA000651D0308072198F84C200C2A79D1284695
:101CB000FFF7A9FD4FF0000B1EE7BBF1550F15D044
:101CC000A6D8BBF1270F19D0BBF14E0FA0D12848E1
:101CD0000CF0CAF90D21E6E70821E4E70921E2E763
:101CE0000A21E0E70B21DEE70C21DCE798F84C2025
:101CF0000D2A05D15C212846FFF785FD5946D2E71C
:101D0000BBF1750F0CBF4FF0040B4FF0080B002117
:101D10001CE040460291FEF765FAD8F810207F2AB1
:101D200005D8144B0299985C10F0400F04D10122A1
:101D300088F84C200021B6E7303A092A88BF22F003
:101D400020024FEA011188BF073A1144BBF1010B91
:101D5000DFD2481CAED0B1F5881FA4D3012288F889
:101D60004C20A7E74FF0020BD1E700BF1173060824
:101D70001A730608B89F060840460291FEF732FA29
:101D8000D8F810200299303A02EBC101D8F814209B
:101D9000303A072ADDD8BBF1010BEDD1D9E75C2140
:101DA0009FE6FF29DAD80D2AD8D1C9B22846FFF715
:101DB00023FD7FE7CB453CBF032288F84C20ABE6F0
:101DC0002846FEF793F9064618B95F2D01D07F2DFE
:101DD0003FD9092288F84C2008F15004E9B2204686
:101DE000FFF70AFD4046FEF7FDF9D8F810104A1C2F
:101DF0000BD00846FEF77AF918BB5F2921D07F295E
:101E00001FD80846FEF77CF9D8B92046FFF7E5FC55
:101E1000764E0546002456F8041B284634F0BAFADC
:101E2000002810D10F34E4B2122C88F84C407FF413
:101E300079AD6F4AD2F8E821002A0CBF11220F2297
:101E4000B9E5C9B2CBE7FFF66DAD0134242CE2D180
:101E500068E52846FEF754F9044648B92E2D05D109
:101E6000D8F81400FEF74CF9044618B9614E61E049
:101E70002E2D2CD10B2288F84C2008F15004294635
:101E80002046FFF7C0FC4046FEF7ACF90B25D8F81A
:101E900010104B1C3FF446AD76BB21F02002452AC2
:101EA0002AD16521204688F84C50FFF7ACFC40460B
:101EB000FEF798F9D8F810102B2901D02D29E6D17A
:101EC0002046FFF7A0FC4046FEF78CF9DFE70A2228
:101ED000302D88F84C20D0D1D8F8140040F02000E4
:101EE000623816289FBF444CC440E44304F0010408
:101EF00084F00104E6B2C0E70846FEF7F7F840B9FF
:101F00000846FEF7FDF820B92E2909D188F84C5073
:101F1000D6E72E29FAD021F020024A2AD0D1F5E7BF
:101F20005F29D0D0FEE4652F01D0632F00D10136A8
:101F30000134013637780FB1BD42F4D14046FEF787
:101F400051F90FB9012236E5212F08D1D8F8102018
:101F50003D2AF7D14046FEF745F93A222BE52E2FD0
:101F600011D1D8F810202E2A03D1D8F814202E2A07
:101F700001D05D221FE54046FEF734F94046FEF7EA
:101F800031F90E2217E50336224616F8025C632D5E
:101F900011D0652D0FD019498A5C88F84C2002F0C9
:101FA000FD01552901D0592A17D1D8F83420013222
:101FB000C8F83420B6E416F8011CD8F8100088429E
:101FC00004F1010407D14046FEF70CF92246652DC5
:101FD000E1D00236D9E7632DFAE7562A02D0582914
:101FE0007FF4A0ACD8F83420013AE1E7CC0107082F
:101FF00024000020CC72060801204000A001070840
:1020000038B50446154662688A42084603D9294411
:102010008A4201D8606038BDA368521A1844194436
:1020200034F05CF96268521B6260F4E737B505462C
:102030000846019134F0A0F9044620B102466B68CD
:10204000019928689847204603B030BD2DE9F74F25
:1020500089469DF8301017460D9A11F0DF0F06469D
:10206000A2EB07023DD0302925490CA813BF8046BA
:1020700088464FF0100A4FF0010A13F0800535D062
:1020800002EBD2746510A2EB6404002D35DDAB4683
:10209000DA45524673683068A8BF5A4641460192F5
:1020A0009847019AABEB020BBBF1000FF0DC2FB1AC
:1020B000736830683A46494698473D44002C0CDD29
:1020C0002544A2455746A8BF2746736830683A465C
:1020D0004146E41B9847002CF3DC284603B0BDE8DA
:1020E000F08FDFF820804FF0100AC6E713F00104EC
:1020F00001D11546C9E71446D9E70025D7E700BF47
:1021000045DA060834DA06082DE9F04389B00646B8
:102110000020119D9DF84880139F8DF80F000AB391
:1021200081421ADA2D228DF80F204942109A08AC0C
:10213000A2F10A000DF11009B1FBF3FC03FB1C1224
:10214000092A8CBF1218303204F8012D4C458E46F6
:1021500061460ED07345EFD90BE0A80727D52B2297
:102160008DF80F200029E1D130238DF81F300DF1BB
:102170001F0415F040099DF80F301CD023B3012235
:10218000CDE900822B460DF10F013046FFF75EFFCF
:10219000013F814608AACDE900872B46121B214644
:1021A0003046FFF753FF484409B0BDE8F0836A07A3
:1021B000D8D52022D4E7002BECD004AA9442E9D948
:1021C00004F8013C013CE5E79946E3E72DE9F043DB
:1021D00016468BB0B207DDF848900746984640D4C3
:1021E00016F0040F0CBF0023202300930A46139B14
:1021F000202102A808F064FBF305044610D5431C17
:102200001F2B0DD800F128020DEB0204252204F843
:10221000202C03F128026A44002102F8201C1C46ED
:1022200016F040051FD09DF808302F2B4FF000030B
:102230001BD8012202A9CDE900323846FFF706FF7C
:1022400009F1FF390546013C0DF10901CDE900898D
:10225000334622463846FFF7F9FE28440BB0BDE866
:10226000F0832B23C1E702A9F0E702A91D46EDE7A1
:102270002DE9F04F824689B0144600260B461D46D4
:1022800013F8012B82B9A94211D30B78002B00F06F
:102290004681013120234FF000080A4612F8015B05
:1022A0007DB94FF00A0C2AE0252AE8D1EBE76F1A36
:1022B000DAF80430DAF800003A4698473E442946F6
:1022C000E3E72D2D03D148F001081146E5E72B2D5A
:1022D00002D148F00208F8E7202D02D148F00408A6
:1022E000F3E7212D02D148F00808EEE7302D22D186
:1022F00048F040082B46E8E70CFB0525303D0F462B
:1023000011F8012BA2F130000928F5D92E2A42D16B
:102310007A782A2A11D00A464FF00A0C0021174673
:1023200012F801BBABF13000092809D80CFB01BB46
:10233000ABF13001F3E70025B3E754F8041B023793
:1023400021EAE17B3A786C2A08BF013797F80090C0
:10235000B9F1000F00F0E380B9F1780F6BD8B9F153
:10236000570F1BD8B9F1470F62D8B9F1440F62D9A2
:10237000073424F00704F4E80201049334F04CFC21
:10238000CDE9005B00EE100A049B424649465046E8
:10239000FFF71CFF63E04FF0FF3BD3E7A9F15802C2
:1023A000202A48D801A151F822F000BFED240308EB
:1023B0003724030837240308372403083724030885
:1023C0003724030837240308372403083724030875
:1023D00037240308492403086B240308D124030885
:1023E00071230308712303087123030837240308AA
:1023F0003724030837240308372403083724030845
:102400003724030837240308372403080F2503085B
:102410007F24030837240308A9240308372403086A
:10242000ED2403083724030837240308ED240308A8
:10243000B9F1500F6BD0DAF80430DAF8000001225D
:102440003946984701360BE054F8042BCDE90035A6
:1024500043463AB1344904225046FFF7F7FD06449B
:10246000791C0BE731490522F6E754F8042B8DF867
:102470001C20CDE900350122434607A9ECE707A956
:1024800054F8040B0493FEF7E6FFBBF1FF3F049BF7
:10249000014604D0079A934538BFCDF81CB0CDE96A
:1024A0000035079A4346D7E754F8041B05930846BE
:1024B000049133F061FFBBF1FF3FDDE904130246F5
:1024C00002D0584528BF5A46CDE900354346C3E7F8
:1024D000CDE9023561230093CDF804800A2301225F
:1024E00054F8041B5046FFF70FFEB8E729F00F021F
:1024F00009F101010F3A01F00601D2B2CDE902352E
:10250000CDF804800092C1F110030022E8E7CDE984
:10251000023561230093CDF804801023F5E730469F
:1025200009B0BDE8F08F00BF2B73060830730608B2
:102530000EB403B503AA52F8041B0192FFF798FEEC
:1025400002B05DF804EB03B0704790F90010037817
:102550000029024601DB1846704703F07F00402344
:10256000184206D112F8013F03F0C001802904D0BF
:10257000704720EA03005B08F2E703F03F0343EAF9
:102580008010EFE701440346002099421A4600D824
:102590007047127802F0C002802A03F1010318BFCD
:1025A0000130F2E710B501440246E52400209142D3
:1025B00003D8B0FA80F0400917E012F8013B30B1BF
:1025C00003F0C003802B11D10138C0B2EFE7BF2B5D
:1025D00009D9F72B09D8D80800F0060044FA00F012
:1025E00000F00300E3E71B06E1D510BD0020FCE787
:1025F000023981420B4603D31A880239002AF8D0E7
:102600000233181A40107047994210B511D313D8ED
:1026100000EB410002EB410209B9084610BD30F859
:10262000023D32F8024D1B1B002B02DB04D10139A5
:10263000F2E74FF0FF30F1E70120EFE7B2EB131FB5
:1026400070B505464FEA131614D9901B03F00F041A
:1026500001EB460102460E46012A31F8023B18BF43
:102660003368E3409BB2013A25F8023BF3D103B94A
:10267000013870BD0020FCE7F0B5059F0024D21B97
:102680002646A74210D100EB470C01EB470100247E
:10269000A24214D10CEB42031EB101212CF81210FE
:1026A0000233181A4010F0BD31F8145033F814C03A
:1026B0006544354420F814502E0C0134E1E731F81C
:1026C000145035442CF814502E0C0134E0E7F0B4CB
:1026D000049F0025D21B2C46AF420BD100EB4706CE
:1026E00001EB470500239A420FD106EB4201F0BCF3
:1026F000FFF77EBF31F81560344433F81560A41B32
:1027000020F8154024140135E6E735F813100C4481
:1027100026F8134024140133E5E72DE9F043079C24
:10272000DDF828E0DDE908760239154684464FF6E3
:10273000FF78A4EB020955B900EB42011FB1012358
:1027400020F812300231BDE8F043FFF751BF31F8F5
:10275000024F013D4444264405EB0904AC4296BFB8
:1027600033F8024B4FF6FF744444744486EA040E77
:1027700017FA8EF72CF8027B4FEA144E360C3F0CFA
:10278000D9E728B103789B0702D48068FEF7EABC3A
:10279000704710B5044638B18068FEF7E3FC204668
:1027A000BDE81040FEF7DEBC10BD38B50229044676
:1027B000806838BF02210D4618B12368B1EB930F32
:1027C00007D96900FEF7E9F92368A06065F39F0364
:1027D000236038BD38B504460C20FEF713F9236892
:1027E0002278054602F00102C3F39D0023F00303A3
:1027F00013432B6063686B604000FEF703F9A86029
:102800002268A168C2F39D02520033F037FD2846CA
:1028100038BD38B505460C464968FFF7C6FF227833
:102820002B78A86862F300032B7063686B606268A2
:10283000A1685200BDE8384033F020BD73B50C46A6
:1028400016460546D2E90132D1E90110FFF7DCFE58
:102850000028BEBF234634461E462378327861687E
:102860005340DB071BD401312846FFF79EFF7368F6
:102870000093D4E90121B368A868FFF7FDFE686002
:1028800023786A68C3F30003002A0CBF002303F017
:1028900001032A7863F300022A7002B070BD284653
:1028A000FFF783FF73680093D4E90121B368A86838
:1028B000FFF70DFFE3E72DE9F04F4B6885B00446C5
:1028C0000E4615460BB1536843B923786FF30003E6
:1028D00023700023636005B0BDE8F08F81422ED1E4
:1028E000FFF778FFA5420646074600D105466B680C
:1028F000716820461944FFF758FF2268A068C2F3A8
:102900009D025200002133F0FDFCB368D4F808E0CA
:10291000D6F804900193AB68029300226B6803938E
:102920000EEB4908F4461146039B934231D0DDF883
:1029300004B0CDF80090ACF10200002318E0824210
:1029400004D1FFF747FF05460746D0E70027CEE74B
:1029500030F802AF53441946029B3BF802AB33F800
:10296000123003FB0A130099038001391B0C0091FC
:1029700000990029ECD14146881C13B1A8F8003019
:102980000146A1EB0E0149100CF1020C0132804608
:10299000CAE761602A78337853402278384663F377
:1029A0000002227005B0BDE8F04FFFF7F2BE10B58F
:1029B000D0E90121034601EB42020020914204D3F9
:1029C0001B78DB0748BF404210BD32F8024D44EA95
:1029D0000040F3E72DE9F0470546D1B19818D5E955
:1029E00001840026A4F1020E4FF0010C374603EBE0
:1029F0000209B8F1000F0ED1B9B3C21A18462B78EC
:102A000013F0010FBDE8F04714BFFF21002133F0A0
:102A100079BC1846E3E73EF8024F103744EA064611
:102A200095F800A0072F0AF0010A02DC08F1FF3830
:102A3000DFE7B4B2BAF1000F06D0E4435CFA84FCDD
:102A40001FFA8CF4CCF3072CE4B249B100F1FF3A41
:102A500000F8014C53450BD0083F360A5046DFE7DB
:102A600082460AF8014BCA45F5E713441A1AC6E72D
:102A7000BDE8F087D0E901329FED0C0A9FED0C7A9A
:102A800002EB43039A4205D30378DB0748BFB1EE5C
:102A9000400A704733F8021D07EE901AF8EEE77A05
:102AA000E0EE077AB0EE670AECE700BF0000000036
:102AB0000000804738B505460C460221FFF775FE39
:102AC000002C2B78B4BF0122002262F300032B708C
:102AD0004FF00003B8BF64426B6004B938BDD5E95C
:102AE0000132581C686022F81340240CF5E72DE9E8
:102AF000F04F0C4651688FB0904601310546029365
:102B0000FFF753FED8F80420A868013252000021D4
:102B100033F0F8FB2B7800266FF300032B706E6008
:102B2000D8F8041020460131FFF73FFE4146204609
:102B3000FFF76FFE029BA768D4F80490D3E9013A2F
:102B40000193AB6803935246019B49463846FFF711
:102B50005BFD002836D1039A6060012313806B600F
:102B600023786168C3F3000200290CBF002202F041
:102B7000010262F30003029A237098F80030127881
:102B80005340DB071BD56B682A78003B18BF012335
:102B900063F300022A7091B100234FF0FF310BA8BC
:102BA000CDE90B330D93FFF785FF0BAA2946284685
:102BB000FFF744FE029A21462046FFF73FFE0FB082
:102BC000BDE8F08F01DA6E60CAE7019B03F10042B5
:102BD000013A4FEA420E3AF81230180406F10101A8
:102BE00053D5B3B209F1010007EB490B0021009363
:102BF000C3F1100327F81910BC4660600BF10209FD
:102C00000493CC4545D33AF81220009B02FA03F313
:102C10000493019B012B0AD90AEB0E02009B32F8A8
:102C2000022CC3F11001CA40049911430491019B85
:102C3000C01A6860039B00F10040013803EB4003B9
:102C400006930EF102030993AAF1020A6368059341
:102C5000059A019B934229D3009B02F1004B0BF193
:102C6000FF3B07EB4B0B0020C3F110065F4573D908
:102C70006FF000416B682BB103985A1830F812209E
:102C8000002A74D06FF0004176E05B009BB20E46E4
:102C9000A3E7BCF80060009B06FA03F31943049B0A
:102CA0002CF8021B26FA03F189B2AAE7BBF8001040
:102CB0003BF8022C049B42EA0142B2FBF3F2099B6F
:102CC000ABEB0303CDE9073A00201E468646B34529
:102CD0000ED8BBF800100844002838D1069B23F812
:102CE00002290693059B5A1EABF1020B6260ADE709
:102CF000089BB6F8009033F8021F0893009B994098
:102D000041EA1E4E1FFA8EF1514319FA80F91FFA5B
:102D100081FC090CA9EB0C0CC1EB204126F802CB7D
:102D200001EB2C40D3E739F802CF009B0CFA03FCEF
:102D30004CEA1E4EB6F800C011FA8EF1614426F836
:102D4000021B090CB345EED80844013AC4E7002140
:102D5000079ED1468E46F5E7BBF80020009B42FA5D
:102D600003F10143B2402BF8021990B27EE7013B18
:102D70006B607FE7013B63606368002B3FF4F0AE5C
:102D80005A1837F81220002AF4D0E9E67FB5064633
:102D900001AD742085E80E00FDF734FE04460346BD
:102DA00095E8070043F8046B83E8070001236FF000
:102DB0000102C4E90A3200250A22C4E90E23C4E94B
:102DC0000C551420FDF71EFE2021206404F1500054
:102DD000FEF77CFC294604F16000FEF777FC236CCB
:102DE00020461D80C4E905552561FDF7FBF9204605
:102DF000FDF7F8F92046FDF7F5F92046FEF754FDFA
:102E0000A36C012B18BF0723204618BF84F84C3051
:102E100004B070BD30B585B001AD0446014628460A
:102E20001EF082F8204633F0A7FA01462046FEF74E
:102E3000EDF995E80E00FFF7A9FF05B030BD0000E1
:102E400010F0010204D040F001000860012070473A
:102E5000A8B110F003030FD102793A2A0ED183688A
:102E60000B6013F00100F1D19A0708D11868044BE8
:102E7000C31A584258417047104670471846704769
:102E80007CD606080346006830B508B9106030BD2E
:102E9000840702D013600120F9E74468E5B28D424F
:102EA000F8D108301060200AF1E730B5058D0446EE
:102EB0000022954201D8002030BDE36A03EBC20036
:102EC00043688B42F8D00132F3E770B504460D46F3
:102ED0001646FFF7EAFFC0B9E38C228D9A4208D369
:102EE0000633D900E06AFDF758FEE38CE062063352
:102EF000E384238DE26A591C02EBC300218502F8AA
:102F00003360002343704380456070BD10B40446B5
:102F10000B466278006A012A03D15DF8044BFFF783
:102F2000D4BFA16A02461031606A5DF8044B04F018
:102F30004CBA000070B505460C4600292ED0CA07D1
:102F400006D5836A5B6B4910686ABDE87040184714
:102F50008B0717D004F00F04022C4FEA11110AD08E
:102F6000062C0CD0062919D0836A406A1B6BBDE879
:102F70007040C9B21847BDE87040FFF7C7BF836A09
:102F80009B6BE1E7836A0968DB68406A98472279AE
:102F9000034B214653F822302846D6E770BD00BFC8
:102FA00060A006084B682DE9F04105460E461F0A51
:102FB00001F108080024BC4201DBBDE8F08158F8AB
:102FC000041B2846FFF7B6FF6B683BB10234284666
:102FD00056F82410BDE8F041FDF7D6B90134EAE710
:102FE00010B50446FFF7DEFFA36A606AD3F8983095
:102FF000BDE81040222118472DE9F0414E6801F14B
:103000000804360A054604EB8607BC4208D1AB6AC1
:10301000686AD3F89C3031460022BDE8F041184779
:1030200054F8041B2846FFF785FFEEE72DE9F74F1C
:1030300005460C4616461F4600212046FDF76AFC51
:1030400040B176B9AB6A9B6E3946686A03B0BDE899
:10305000F04F184701212046FDF75CFC20B1002EFF
:10306000F0D103B0BDE8F08F002C49D0A30747D1C1
:1030700063684FEA132BDBB21E2B33D1B6BBD5F8F6
:103080000C8008F10103EB600BF1FF3304F1080A37
:103090004FF00009009386F00102009B4B450CDCC9
:1030A0000BF101013B4654F8211032462846FFF748
:1030B000BDFFAB6A41469B6AC7E75AF8041B019201
:1030C00043462846FFF7B2FF09F10109019AE4E7F8
:1030D00054F8041B3B4632462846FFF7A7FFA0459D
:1030E000F6D1BEE71F2B05D1002EC8D1083404EB62
:1030F0008B08F4E7202B03D1A46886F001069BE738
:1031000021462846FFF716FFAB6A686ADB6E3A462F
:10311000314603B0BDE8F04F184710B50446896842
:10312000FFF708FFA36A606ADB6DBDE8104018472F
:1031300070B58D6804463DB9836AD3F8C43029461A
:10314000606ABDE870401847AB070ED12B795E2B43
:103150000BD1A968FFF7EEFEE9682046FFF7EAFE0B
:10316000A36A0221D3F8C430EAE729462046FFF7D4
:10317000E1FEA36A0121D3F8C430E1E7184B2DE941
:10318000F041D3F8E87104460D463FBBC668896834
:10319000731CC36001223346FFF748FFA36A606ACD
:1031A0005B691F2101229847E96851B12046FFF76A
:1031B000C1FEA36A606AD3F8B8503A463B46012183
:1031C000A847A36A606AD3F8C43001219847A36A6C
:1031D000606A9B6A3146BDE8F0411847BDE8F0815E
:1031E000240000202DE9F347C6680D46731CC36018
:1031F00004460021A868FDF78DFB0246F0B9E76898
:10320000A9687B1CE36020463B46FFF70FFFE96897
:103210002046FFF78FFEA8680121FDF77BFBD8B998
:103220002B690BB96B6923B1A36A606A9B6E314647
:103230009847A36A606A9B6A3946984701AA712138
:1032400005F11000FFF71EFE002781464F450BD108
:1032500069692046FFF76EFEA36A606A9B6A314681
:10326000984702B0BDE8F087019B53F82780002102
:10327000D8F80800FDF74EFB024600BBD4F80CA0BE
:10328000D8F808100AF10103E36020465346FFF71F
:10329000CDFED8F80C102046FFF74CFED8F80800F9
:1032A0000121FDF737FB0028D6D1A36A606A9B6E27
:1032B00031469847A36A606A9B6A5146984701372E
:1032C000C4E72DE9F047C668D0F814A0B0F81A900A
:1032D00086820D46B31CC36006F10108038BA0F87B
:1032E0001680044643830021A868FDF713FB00BB4A
:1032F000E768A8687B1CE3600121FDF70BFB20B9A0
:10330000A36A606A9B6E41469847A36A606A9B6A9B
:1033100039469847E9682046FFF70CFEA36A606AC1
:103320009B6A41469847A9683B4601222046FFF721
:103330007DFE2969C4F814A02046A4F81A90FFF76E
:10334000F9FDA36A606A9B6A3146BDE8F0471847F9
:103350002DE9F041C568D1F80C800E46AB1C04463F
:103360000022D8F80810C3602B46FFF75FFEB16853
:103370002046FFF7DFFDA36A606A9B6E6F1C39462B
:103380009847A36A606A9B6A29469847A36A606A5D
:103390009B684FF0FF319847D8F80C102046FFF794
:1033A000C9FDA36A606A9B6A3946BDE8F0411847C7
:1033B0002DE9F0474E68D0F80C805FFA86F9A9F144
:1033C0001E03D3F1000949EB030908F10103044688
:1033D000C360360A01F108050027B74206DBA36A7D
:1033E000606A9B6A4146BDE8F047184755F8041BE0
:1033F00020460137FFF79EFDB742F0DAA36A606A04
:103400001B6F424649469847E7E710B5044689686E
:10341000FFF790FDA36A606AD3F89430BDE81040CE
:10342000032118472DE9F0414E6804460D46360A3F
:103430008968FFF77FFD032E83BFD4F80C8008F165
:103440000103E3604FF0000801277B1C9E4222DC51
:10345000032E55DDE568606A6B1CE360A36A2946AC
:103460009B6E9847A36A606A9B6A41469847A36A25
:10347000606A9B6801219847A36A606A1B6E98473F
:10348000A36A606ADB6D9847A36A606A9B6A2946F3
:10349000BDE8F0411847296920460237FFF74AFD89
:1034A000B74207DAA36A606A5B6D9847A36A606AED
:1034B0005B6E9847E968A36A606AD3F8983001F0B8
:1034C0000F020A2A11D1C1F3071126291ABF353973
:1034D000C9B206219847B74205DAA36A606A1B6F32
:1034E0004246002198470835AFE70A79852A01D17D
:1034F0003221EFE78A680AB90721EBE73321E9E7D0
:10350000BDE8F0812DE9F0414E680C46896805461A
:10351000FFF710FDA6F10D085FFA88F8360A0C34A3
:103520000127B74201DBBDE8F08154F8041B2846AF
:10353000FFF700FDAB6A686AD3F8983041469847B8
:103540000137EEE7F8B54F680C4689680546FFF786
:10355000F1FC3F0A0C3400260236B74204F108049D
:1035600000DCF8BD54F8041C2846FFF7E3FC54F8CF
:10357000081CAB6A686AD3F8983009092539C9B2C2
:103580009847E9E770B50D46C9680446FFF7D2FCD5
:10359000A968A36A606AD3F89430C1F3071134298B
:1035A00018BF4039BDE8704014BFC9B202211847A6
:1035B00070B54378CE68012B0446154606D1036AE0
:1035C0000A461B8B2946FDF769FA70610023716971
:1035D0001A462046FCF726FFF1682046FFF7AAFCB2
:1035E000062D05D1A36A606AD3F88430002198477C
:1035F000A36A606AD3F8B8500023AC461A46BDE807
:10360000704001216047896810B4034641B9826A5D
:10361000406AD2F89C400A4623465DF8044B18479E
:103620004A68120A022A0BD1CA684AB1940707D124
:103630001279AC2A04D15DF8044B0622FFF7B8BF1B
:103640005DF8044B1846FFF7D7BC70B58D6804468B
:1036500045B9836AD3F89C3001222946606ABDE8E7
:1036600070401847A9071ED16B68DAB2922A1AD1A6
:103670001B0A022B0CD1EB6853B19A0708D11B79B6
:10368000AC2B05D129460322BDE87040FFF790BF5F
:1036900029462046FFF786FC6968A36A0122D3F811
:1036A0009C30090ADAE729462046FFF743FCA36A63
:1036B0000122D3F89C301146D0E710B50446896842
:1036C000FFF738FCA36A606ADB6CBDE8104000219C
:1036D00018470B79342B70B504460D4610D1896814
:1036E000FFF728FCED68AD6885B9A36A606A1B6BBB
:1036F00010219847A36A0422D3F89C3002211AE0D3
:10370000836A406A1B6B10219847ECE7AB071FD117
:103710002B799A2B13D1A36A606A1B6B10219847EF
:10372000A9680029E6D02046FFF704FCA36AD3F875
:103730009C3004220321606ABDE8704018479B2B2F
:1037400006D1A9682046FFF7F5FBEB689968E8E722
:1037500029462046FFF7EEFBCCE738B50C46054678
:10376000C968FFF7E7FBA1682846BDE83840FFF7C6
:10377000E1BB000038B543680D46044611464BB91D
:1037800005480AF02BFA294660602046BDE838401B
:10379000FCF7FABD38BD00BF20D506088B072DE920
:1037A000F14F04460D46164611D001F00F03022BCF
:1037B00016D1D7074FEA111104D401B0BDE8F04F7C
:1037C000FDF7B7B801B0BDE8F04FFFF79FBB496800
:1037D000CBB22D2B7BD00BD8062B0DD02C2B12D09F
:1037E0004E4A2946204601B0BDE8F04FFFF7C2BF60
:1037F0002E2B7FD09D2BF3D1002EF1D105F10802A5
:10380000090A20467BE0022A02D0A968FFF792FB52
:10381000EF68002FE4D017F00309E1D17B68DAB23A
:103820008E2AB8460DD1022E4FEA132805D007F193
:10383000080A08F1FF3BD94511DB08F1010857F8E8
:10384000288098F80430312B24D1022E0FD1A36A9E
:10385000606A5B6E9847A36ADB6C012115E05AF839
:10386000041B2046FFF766FB09F10109E3E7D8F8DE
:1038700008102046FFF75EFB012EA36AECD19B6D7A
:10388000606A9847A36ADB6C0021606A01B0BDE8FA
:10389000F04F1847322BA3D1012ED4E909030CD1E4
:1038A0005B6D9847A36AD8F808101B6D0022606A08
:1038B000090901B0BDE8F04F1847022E01D11B6E77
:1038C0009847A36AD8F808101B6D0122EFE7AA6891
:1038D000002A85D0002E83D15168090A022907D118
:1038E000D3682BB1980703D11B79AC2B3FF478AF89
:1038F000083286E7002A7FF473AFA96821B901B0C6
:10390000BDE8F04F00F00CB88E0703D10B79922B75
:103910000A46E1D005F10802012172E73673060874
:103920002DE9F84304460D46904601F1FF39002683
:103930004FF0FF37B9F1FF3F0CD17B1C05D1A36AD3
:10394000606AD3F8A830294698470026AE421DD1B8
:10395000BDE8F88358F8261071B18A070CD10B79AD
:10396000222B09D101370BD1A36A606AD3F8AC309E
:103970004A46314698473746013609F1FF39D9E7BB
:103980002046084ABDE8F843FFF7F4BE58F8261071
:10399000B74208BF896800222046FFF7FFFE0136C4
:1039A000D4E700BF417306082DE9F04F8B682DED79
:1039B000028B03F00F03022B87B004460E4640F043
:1039C0000381CB68002B00F0FF80980740F0FC805B
:1039D0001A792C2A40F0F8809A6802F00F01022927
:1039E00040F0F28012097C2A40F0EE80DB681A7900
:1039F000302A40F0E9809B68059304AAA42105A819
:103A0000FFF740FA431E022B00F2DE8004990128E2
:103A10000A6800F0CB800228D1F804A000F02581CC
:103A20008D68E90740F1D0806B0800F0CD8032B19D
:103A3000930704D11179A639022940F2C580BAF161
:103A4000000F08D01AF0030F05D19AF80410A63918
:103A5000022940F2B980B3687769218B08EE103AE9
:103A60003369E66808EE903A63690293638B0193C9
:103A70006183731C311D1AF0010B039306F10208D8
:103A8000A682E38206F10309E16005D15146204692
:103A90000392FFF74FFA039A11462046FFF74AFABE
:103AA000A26A606A926E49469047A26A606A926A08
:103AB00041469047A26A606A526D9047002218EE14
:103AC000101A2046FFF76AFE18EE901A2046FFF7FC
:103AD00031FAA26A606A926A711C904729462046B0
:103AE000FFF728FAA26A606AD2F898200E21904760
:103AF000A26A606A926A49469047A26ABBF1000FC7
:103B000058D1936D606A9847A36A606A1B6E9847A4
:103B1000A36A606AD3F89830002DACBF0021012160
:103B20009847A36A606ADB6E424601219847029B70
:103B30006361019B6383002F44D0A36A606ADB6DDD
:103B40009847BBF1000F03D1A36A606ADB6D984709
:103B500039462046FFF7EEF9E568606A6B1CE360C2
:103B6000A36A29469B6E9847A36A606A9B688BF09C
:103B7000010101319847A36A606A9B6A3146984700
:103B8000A36A606ADB6D9847BBF1000F03D1A36A9B
:103B9000606ADB6D984727B1A36A606A9B6A294611
:103BA000984707B0BDEC028BBDE8F08F9246032525
:103BB000024644E7606A526D904751462046FFF73F
:103BC000B9F9A5E73D46D6E7E568238BB4F81A9026
:103BD00063836FEA45436FEA5343D4F814A0A3828A
:103BE0006F1CEB1CF168E3602046E782FFF7A2F947
:103BF000A36A606AD3F8843001219847A36A606A97
:103C00009B6A39469847A36A606AD3F8883005F101
:103C10000208414698470022B1682046FFF7BEFDE2
:103C200031692046FFF786F9A36A606A9B6E3946C0
:103C30009847A36A606A9B6A41469847A36A606A8C
:103C4000D3F88C3098477169C4F814A02046A4F8C2
:103C50001A90FFF76FF9A36A606A9B6A294607B05A
:103C6000BDEC028BBDE8F04F18470325DFE62DE9D8
:103C7000F7430446904699460F4629B9194603B0C2
:103C8000BDE8F043FFF756B9C668731CC3601568FA
:103C900045B315F0030225D12B797B2B22D1A968DE
:103CA0000192FFF747F9019A31462046FCF77DFB68
:103CB000019AE9682046FFF771FD4B4608F10402BE
:103CC000791E2046FFF7D3FFA36A606ADB6F314697
:103CD000984703212046FCF760FB03B0BDE8F043A2
:103CE000FCF773BB29462046FFF724F92046002243
:103CF0003146FCF75AFBA36A606ADB6D9847DCE744
:103D000037B50C46054601AA7A2104F10800FFF7F1
:103D1000B9F8E368019A01462846FFF7A8FF03B007
:103D200030BD2DE9F74F044690460F4629B9194694
:103D300003B0BDE8F04FFFF7FDB8C668321DC260A2
:103D4000D8F8005006F1010A06F1020B06F103094A
:103D5000002D00F0F28015F0030240F0EE8029798A
:103D60007B2940F0EA80A968CDE90032FFF7E2F84C
:103D7000A16A606A496D8847A8212046FCF70FFCBC
:103D8000019AE9682046FFF709FD009B0093314640
:103D900020460222FCF709FBA26A606A92680321AE
:103DA000904708F10402009B791E2046FFF7B9FFF7
:103DB000A36A606A9B686FF002019847A36A606A11
:103DC0001B6B10219847A36A606A1B6E9847A36A11
:103DD000606A9B6E51469847A36A606A9B6A314647
:103DE0009847A36A606A5B6D9847A36A606A5B69DB
:103DF000012221219847A36A606AD3F898300821EC
:103E00009847A36A606ADB6E5A4600219847A36A06
:103E1000606A5B6D9847A36A606A5B6E9847A36AA5
:103E2000606A1B6E9847A36A606A5B6C0022A921D6
:103E30009847A36A606A5B6E9847A36A606A5B6E84
:103E40009847A36A606A5B6D9847A36A606A1B6DB6
:103E500000220A219847A36A606A1B6E9847A36AEA
:103E6000606A1B6B10219847A36A606AD3F8BC5044
:103E700000231A460321A8472046FCF777FBA36AD4
:103E8000606ADB6E4A4600219847A36A606ADB6D70
:103E90009847A36A606A1B6B10219847A36A606AFF
:103EA0009B6E49469847A36A606A9B6802219847BF
:103EB000A36A606A9B6A59469847A36A606A5B6E08
:103EC0009847A36A606A5B6E9847A36A606A9B6AB8
:103ED00051469847A36A606A5B6C0022A921984703
:103EE000A36A606A1B6B10219847A36A606A5B6DC6
:103EF0009847A36A606A5B6D9847A36A606AD3F8C3
:103F0000BC5000231A460321A8472046FCF72EFB8D
:103F1000A36A606ADB6D9847A36A606A9B684FF08A
:103F2000FF319847A36A606A9B6A494698472046D2
:103F300003B0BDE8F04FFCF748BA2946204600938D
:103F4000FEF7F8FFA26A606A526D90472046A821EA
:103F5000FCF725FBA26A606AD26D904715E72DE950
:103F6000F041CD6804460E4635BB0378BBB1036A09
:103F70001D78A5B9D121FEF7C9FFB1682046FEF72B
:103F8000D9FFA36A606AD3F8B8602A462B4601219C
:103F9000B047A36A606ADB6DBDE8F0411847B168BD
:103FA000880700F0BC8001F00F03022B40F0BE80B8
:103FB0002046FEF7BFFFECE7A90740F0BB806B6827
:103FC000DAB25B2A14D1ED68002D40F0B180006AAE
:103FD0000378072B40F0AA80B16801F00F03022B91
:103FE00040F0A4800422BDE8F041D140FEF76DBF4F
:103FF000562A13D10122B168FFF7D0FBE9682046A9
:10400000FEF798FFA968A36A606AD3F89830090997
:104010003F39C9B298470222B1687BE0572A40F085
:1040200087801B0A5F1E013355F82310FEF782FFBD
:10403000002F03DDA36A606A5B6D9847B1680022B8
:104040002046FFF7ABFB08350026BE426EDA01368C
:10405000BE4203DAA36A606A5B6D984755F8041B99
:1040600000222046FFF79AFBEFE76B68DAB2062AD8
:1040700060D1B768002F5DD0BA075BD17A68D1B242
:10408000062957D11B0AB3EB122F4FEA122851D140
:10409000A8F10203012B4DD8BB6823B1980702D1C8
:1040A0001B79222B46D0FB6823B1990702D11B79DB
:1040B000222B3FD0B8F1020F06D03B6923B19A07FB
:1040C00002D11B79222B35D0A9682046FEF732FF9A
:1040D000E9682046FEF72EFFB8F1030F07D120460E
:1040E0002969FEF727FFA36A606A5B6E9847A36A97
:1040F000606A1B6E9847B96800222046FFF74EFBA6
:10410000F96800222046FFF749FBB8F1030F0DD1F3
:10411000396900222046BDE8F041FFF73FBB002986
:104120003FF446AF0B793A2B7FF442AFBDE8F08104
:10413000AB079AD029462046FEF7FCFE00226BE72B
:104140002DE9F047C7681E46BB1CC360836A04465E
:104150000D469B6A406A394690469847A36A606A52
:10416000D3F8883007F1010949469847A968002229
:104170002046FFF713FB2D69002D2DD14146204627
:10418000FEF7D8FE236AA06A197806291DD1D0F857
:10419000C830606A2946984720460121FCF7FDF89F
:1041A000A36A606ADB6D9847A36A606A9B6E3946B2
:1041B0009847A36A606A9B6A49469847A36A606AFF
:1041C000D3F88C30BDE8F0471847B200D0F8A450BF
:1041D000606A0532A847E7E72B79AD2B07D1A968BC
:1041E0003B4600222046FEF721FFED68C4E7E96860
:1041F0002046FEF79FFEA36A606AD3F8843001214F
:104200009847731C424629462046FFF799FFCBE7A3
:1042100001F00F03022B70B504460FD00B79492B28
:1042200001D04F2B02D10123A37070BD4A2BFCD0CB
:10423000502BFAD0482B0DD10D696DB9A378002B06
:10424000F3D1638A002BF0D020461D4ABDE87040B0
:10425000FFF790BACD68F0E7A37843B3238A8E685E
:1042600001339BB2012B23820ED1618AD4E9090369
:10427000D1B1D3F89C3000229847A36A606AD3F882
:104280009C3002220021984729462046FEF752FE24
:10429000A36A606A9B6B31099847A36A606AD3F886
:1042A000A030BDE8704018471B6C9847E5E7638A6B
:1042B0000133638229462046BDE87040FEF73ABECE
:1042C0004873060801F00F03022B2DE9F04705465D
:1042D0000C4604D1BDE8F0470909FCF73DBB0029B5
:1042E00055D011F0030652D10B792C2B38D18968A7
:1042F000FEF720FEE668002E49D016F0030846D1EE
:104300007768FAB28E2A334609D13F0A06F10809C6
:1043100007F1FF3AC24510DC013756F827301A7909
:10432000312A12D199682846FEF704FEAB6A686A02
:10433000DB6CBDE8F0470221184759F8041B2846FA
:10434000FEF7F8FD08F10108E4E7322A1FD1996869
:10435000AB6A686A1B6DBDE8F0470222090918477D
:104360002D2B14D18C6894B163681B0A022B01D1E8
:10437000E3683BB904F108076368B6EB132F0DD36C
:10438000BDE8F0879A07F5D11B79AC2BF2D1214615
:104390002846064ABDE8F047FFF7ECB957F8041B7A
:1043A0002846FFF78FFF0136E6E700BF6673060871
:1043B0000B79092B70B50CBF858AC58A4FF6FF7340
:1043C0009D42044602D1064AFFF7D4F9218B628B45
:1043D000A36A606A5B6F8A1A2946BDE87040184775
:1043E000707306082DE9F041026A1278072A044624
:1043F00004D0BDE8F0411A4AFFF7BCB98D685DB939
:10440000836A406A1B6B10219847A36A606AD3F8DD
:10441000C030BDE8F041184715F003021DD12B79DB
:104420001B2B1AD1C668EF68731CC360B96833468A
:10443000FEF7FCFDA9682046FEF77CFDA36A606AD2
:10444000D3F8C0309847A36A606A9B6A31469847A0
:10445000F9682046FEF76EFDD7E72946F9E700BF69
:1044600089730608F0B58D6805F00F030A2B85B037
:1044700004460E4606D0002D30D0AB072ED12B7946
:10448000652B1ED10395002502AA652103A8FEF71E
:10449000F9FC029B002103EB800040F2DA529842C3
:1044A00015D1F26840F22A439A4236D1236A1F7826
:1044B000B7B1394A3146204605B0BDE8F040FFF7B4
:1044C00059B9622B0AD1AB680393ED68DCE753F866
:1044D000047B97420CBF01310331E0E70021E0E7A4
:1044E000A36A606A5B6B9847A36A606A9B6B05214D
:1044F0009847A36A606AD3F89C303A4601219847EE
:1045000003AA29462046FCF7B5FFA36A606ADB6A66
:1045100002223946984705B0F0BDA36A606A5B6B1A
:10452000984706F10C0003AA6A21FEF7ABFC0027AE
:104530000646B742D4E9090311D1D3F89C300022D2
:1045400031469847294602AA2046FCF793FF0025EA
:10455000B542D4E909030BD1DB6D9847DBE7039A39
:104560009B6B52F827209168090998470137E0E7CB
:10457000039ADB6A52F82570B96801220909019192
:104580009847FB682BB901992046FCF7D2F9013511
:10459000DEE71909F8E700BF9573060870B5144601
:1045A000054612780E46ABB132B1032A04D0134A45
:1045B000BDE87040FFF7DEB8032323702B6A616803
:1045C00018465B68002BFBD1FEF76FFC08B1032394
:1045D000037070BD6AB901232370036A21465868CD
:1045E00031F0ADF92378012BF3D1054A3146284645
:1045F000DEE7062AEDD0034ADAE700BFA773060814
:10460000B4730608C17306082DE9F3414378012B02
:1046100004460D461AD10B79102B0CBF4FF0010840
:104620004FF0000808D0036A1B782BB9114A02B07A
:10463000BDE8F041FFF79EB801AA6D2105F1080021
:10464000FEF720FC00260746B74202D102B0BDE8C3
:10465000F081019B206A53F8261000220909FEF719
:1046600034FC4346024629462046FFF797FF0136B1
:10467000EAE700BFC87306082DE9F04F2DED028B65
:1046800083B0C56801921E460E9B08EE103AAB1C23
:104690000446C3600F4601222946FBF786FE3946D1
:1046A0002046FEF747FCA36A606AD3F8903005F114
:1046B000010A002251469847A36A606A9B6A29460C
:1046C0009847A36A606AD3F8CC309847D4F80C8036
:1046D00008F10103E3600027019B9F421BDB20469A
:1046E000FBF773FEA36A606AD3F8D0309847A36AD9
:1046F000606A9B6A5146984718EE101A2046FEF7EA
:1047000019FCA36A606A9B6A414603B0BDEC028B48
:10471000BDE8F04F18473346D4F80C901A68009261
:1047200009F10102E260009AD2F808B004360137BC
:10473000BBF1000F47D1019ABA4237D1A36A606A30
:10474000DB6D98470025AB46009B2046D968FEF7F5
:10475000F1FBCDB1A26A606A126B10219047A26A88
:10476000606A926A59469047A36A606A1B6B10217F
:10477000984729462046FCF7DCF820462946FCF7F6
:10478000EBF82046FBF721FEA36A606AD3F890306D
:10479000012241469847A36A606A9B6A4946984746
:1047A000A36A606A9B680121984795E720461F4AE3
:1047B0001968FEF7DFFF204603B0BDEC028BBDE8B1
:1047C000F04FFBF702BE1BF003052DD19BF8042030
:1047D000762A5B4603D1DD68DBF808B02D09A36AB1
:1047E000606A5B6D984759462046FEF7A3FBA36AB3
:1047F000606AD3F8983008219847A36A606ADB6E34
:104800004A4600219847002D98D029462046FCF7BB
:1048100090F8D4F80CB00BF10102E2605946022284
:104820002046FBF7C2FD8FE70025D8E7DE730608B8
:104830002DE9F043C76885B016467A1CC2600D4664
:10484000022239460393DDE90C980446FBF7ADFDDF
:10485000039B16BBA36A606A9B680321984729469D
:104860002046FEF767FBA36A606A9B686FF002014F
:104870009847A36A606A1B6B10219847A36A606A15
:104880009B6A3946984720464146FEF753FB20462F
:1048900005B0BDE8F043FBF798BDCDF80090324677
:1048A00029462046FFF7E8FEE3E77FB5CD682B7980
:1048B000782B06460C4609D1AB6801930023009380
:1048C00089681A46FFF7B4FF04B070BD742B03AAC1
:1048D0004FF0770116D105F10800FEF7D3FA2B69E6
:1048E00002463BB9EB680093A168039B3046FFF793
:1048F000C3FEE9E79B680193EB680093A168039B03
:104900003046DFE704F10C00FEF7BCFA0023024654
:10491000E9E700002DE9F04F8D682B79032B85B076
:1049200004460AD12946FCF70AF9AA69D38A43F05A
:104930000103D38205B0BDE8F08F026AD28AD207A4
:1049400006D4614A294605B0BDE8F04FFEF712BF14
:10495000162B40F0AB80C668E968331DC360FEF7D4
:10496000E9FAA36A606A5B6C0022AA219847A36AED
:10497000606AD3F8BC7000231A461946B847E76846
:1049800063690193638B0093BB1CE360238B638398
:10499000A36A606A9B6AA78207F1010806F1010B0E
:1049A0004146A4F816809847012259462046FBF755
:1049B000FCFCA36A606A5B6D98472046AC21FBF75C
:1049C000EEFDA96820460022FEF7E8FEA36A606AB1
:1049D000D3F8903006F10209002249469847A36AAD
:1049E000606A9B6A59469847A36A606AD3F8CC30DC
:1049F0009847A36A606A5B6D9847A36A606A5B69BF
:104A0000012240F2D3219847A36A606AD3F8983014
:104A100008219847A36A606ADB6E06F1030A5246D2
:104A200000219847A36A606ADB6D9847A36A606AB1
:104A3000D3F89030012231469847A36A606A9B6A96
:104A400051469847A36A606A9B68012198472046AF
:104A5000FBF7BBFCA36A606AD3F8D0309847A36A1F
:104A6000606A9B6A4946984729692046FEF762FAC0
:104A7000A36A606A9B6E41469847019B6361009BF5
:104A80006383A36A606A9B6A3146984769692046D6
:104A9000FEF750FAA36A606A9B6A39469847A36A90
:104AA000606ADB6D05B0BDE8F04F184703AA7A21B4
:104AB00005F10800FEF7E6F9EB68039A0146204687
:104AC000FFF72FF936E700BFF673060801F00F0372
:104AD000022B70B504460D46164602D01E4AFEF75C
:104AE00049FE31462046FEF725FAA36A606A5B6DEF
:104AF00098476378012B4FEA15160FD1226A137875
:104B0000033B032B0AD85068314602F04FFC027871
:104B1000032A09D1206A3146FEF7D7F931462046EB
:104B2000BDE87040FBF705BF206A00223146FEF762
:104B3000CCF9236A5B685B68002B0CBF0123002360
:104B400004D00278012A04BF0022027002462946DE
:104B50002046FFF723FDE1E736730608D1E902128C
:104B6000FFF7B4BF014AFEF705BE00BF0D7406088B
:104B70002DE9F04F87B0CDE90221044605AAA42112
:104B800003A81D46FEF77EF900270190B9463E4670
:104B9000B8464FF0010B019B9F4211D126B1A36A89
:104BA000606A5B6B49469847029AD4E90903002A78
:104BB00073D0D3F8BC40334642462946A04713E0A1
:104BC000059B53F827A0BAF1000F5BD01AF0030F32
:104BD00058D19AF80420A62A19D1B00707D5304A2F
:104BE00051462046FEF7C6FD07B0BDE8F08F1D2FE9
:104BF00001D92C4AF4E70BFA07F2DAF8081046F06C
:104C0000010649EA02092046FEF794F920E0A72AA6
:104C10000ED1A26A606A126C9047DAF8081046F06A
:104C200002062046FEF786F908F101080137B2E7CF
:104C3000A82A27D1DAF80C2072B191070CD111798A
:104C4000AA2907D19268DAF808102046FFF73EFF3C
:104C50000135EBE7AC290FD0DAF8081001F00F02AC
:104C6000022A01D0104ABBE7A26A606A926B090966
:104C70009047DAF80C10D4E7062251462046FEF79A
:104C800097FCE5E7B30701D5084AA9E7B8F1000F9B
:104C900001D0074AA4E75146B5E7D3F8B8408AE700
:104CA0001A74060821740608297406083674060862
:104CB0003D74060870B50D46417801290446134637
:104CC00003D12A46FBF7EAFE6861A36A606A9B6C1F
:104CD00098476E6900231A4631462046FBF7A2FB2F
:104CE000A36AB18A9B6B606A9847E96829B18B0710
:104CF00003D10B79A32B08BF0021204602230022F9
:104D0000FFF736FFB08A70BD2DE9F04F85B004463D
:104D10000191019BDFF818A103F1080002AA4221CA
:104D2000FEF7B0F8236A00261D8B8346B1465E4528
:104D30000AD1019BD9680B79032B50D12A46204612
:104D4000FBF7E8FE054658E0029B53F82630009337
:104D500003AA6C2103F10800FEF794F8039B19687D
:104D60000A09732A07460DD02046FEF7E3F84FF0F4
:104D70000108B84527D3009BD96859B12046FEF7F2
:104D8000D9F807E0022807D052462046FEF7F2FC89
:104D900009F101090136CAE759680B09412B0CD00A
:104DA000B3F5816F0BD040F2CE42934209D040F26E
:104DB0000A329342E8D10425EAE70125E8E70546EF
:104DC000E6E70325E4E7039B606A53F82810A36A2B
:104DD00000221B6D0909984708F10108C9E7442B17
:104DE00017D18E682A4631462046FBF793FEB269FA
:104DF000D38A43F001030546D3820026ABEB0909B1
:104E0000B1450BD829462046FBF793FD05B0BDE818
:104E1000F08F2A462046FFF74DFF93E7A36A606AAA
:104E2000D3F8B87000231A460121B8470136E7E7E6
:104E300044740608036A10B51A8B0446FFF73AFF5C
:104E400001462046BDE81040FBF773BD002389688A
:104E50001A46FFF78DBE00002DE9F7438D68044622
:104E600016465DB9002A75D0836AD3F89C300222B9
:104E70002946606A03B0BDE8F043184715F0030700
:104E800040F08A802B79372B13D132B1836A406A84
:104E9000D3F89C3002220121984720462946FEF78C
:104EA00049F8A36A606AD3F8A03003B0BDE8F043C4
:104EB00018479F2B70D1EB681A79A12A5AD1A221E9
:104EC00001AA03F10800FDF7DDFFA968804621B3C0
:104ED0008B0722D10B79372B1FD136B1A36A411C26
:104EE000D3F89C30606A02229847A9682046FEF7F2
:104EF00021F8A36A606AD3F8A03098474FF00109FF
:104F0000474510D1B9F1000F24D1A36A606AD3F8E4
:104F10009C300322791C98471CE02046FEF70AF8D3
:104F20004FF00009ECE7019B53F82710A9B18E0759
:104F300013D10E79A6F13700464246412046FDF7CF
:104F4000F9FFB9F1000F11D04EB9184A2946204691
:104F5000FEF710FC03B0BDE8F0830026EEE7A36A7D
:104F6000606AD3F8A03098470137C9E7002EFBD01C
:104F70000F4AEBE7AB685BB19A0709D11B79372B76
:104F800006D10422294603B0BDE8F043FEF710BB6A
:104F9000052229462046F6E729462046FDF7CAFFA6
:104FA000A36A0322D3F89C30012162E75C740608EF
:104FB0006D7406082DE9F7430C4689680546FDF730
:104FC000B9FFE668002E59D07768296AFBB20978E4
:104FD0008E2BA36819BF04F10C0601273F0A08367F
:104FE000072903F00F024ED1022A4AD11A099A2A40
:104FF0004BD132681179302947D19268002A44D1C7
:105000000A212846FDF782FF2A6AD36A128D3AB92F
:10501000424A3168284603B0BDE8F043FEF7AABB18
:105020005978C9070FD559682846FDF76FFF022F39
:105030000CD8AB6A686AD3F8B84000231A4602213C
:10504000A047012418E0013A0833E0E773681A79B1
:10505000322AEED1B4682279302AEAD19968AB6A53
:10506000686A5B6C012209099847A1680023012244
:105070002846FFF77DFD0324A74226D803B0BDE8EC
:10508000F0830024F8E7022AFBD11B09B3F52B7F3C
:10509000F7D133681A79302AF3D19C68002CEBD011
:1050A00014F00302EDD123792F2BEAD1AB6A686AA1
:1050B000D3F8B840019213461146A0473368019ACD
:1050C00099682846FFF7C8FEBBE704F10108B84518
:1050D00056F824104FEA84031AD20A79322A17D1DB
:1050E0003344D3F8049099F80430302B10D18968F8
:1050F000AB6A686A5B6C002209099847D9F8081006
:10510000002301222846FFF733FD08F10104B3E72D
:105110002846FDF70FFFA046F7E700BF78740608A2
:105120000122FFF799BE000038B5026A1278072AFB
:1051300004460B4606D0022A04D0BDE83840144A83
:10514000FEF718BB9D6885B9A36A606A1B6B1021C6
:105150009847A36A606AD3F8C83000219847204670
:105160000121BDE83840FBF718B9AB070BD12B790B
:10517000AF2B08D12046A968FDF7DCFE2046BDE82C
:105180003840FBF7F3B929462046FDF7D3FEE0E7A8
:105190008B74060810B5026A1278072A04460B467B
:1051A00006D0022A04D0BDE81040064AFEF7E2BA53
:1051B00020461946FFF7FEFE2046BDE81040FBF7EB
:1051C000D5B900BF967406082DE9F04F0E4601626E
:1051D00000214270C1603378072B89B00446154620
:1051E00005D08C4A09B0BDE8F04FFEF7C3BA012ADA
:1051F00005D0036B021D1B68C06A29469847637877
:10520000D6F80C90032B10D107AA462109F10C0007
:10521000FDF738FE236B079A9B680146E06A9847C2
:1052200063687083002B40F0BD80D9F81010C1B1C5
:1052300001F00F06022E10D10B09752B42D006D8B3
:105240003E2B41D05E2B0DD0734A2046CAE740F278
:10525000BB429342F8D1032604E0704A2046FEF791
:1052600089FA0226D9F81430059304AA192105A851
:10527000FDF708FE4FF0000A0290029B9A4525D1E7
:105280006378012B1AD9236BE06A5B683146984733
:105290006378042B12D1E36AD968236A1A695B8B9D
:1052A0005160002191601168D660C3F30A039B022C
:1052B000490D43F0050349050B4313606368002B58
:1052C00070D114E00026CDE70126CBE7049B53F80C
:1052D0002A100B79082B4FEA8A0B02D10AF1010A36
:1052E000CBE7052B06D04E4A2046FEF743FA09B01D
:1052F000BDE8F08FCB68002BF5D18B681A792C2A8A
:10530000F1D19F6807F00F02022AECD1DB6801930C
:10531000002BE8D09807E6D11B79302BE3D1019B15
:1053200006AA03F10800A421FDF7ACFD3F0940F2F5
:10533000C9339F4280461BD1012805D1069A1368C4
:1053400003F00F03022B04D0364A049B53F80B10D2
:10535000CAE7E168012D01F10103E3601DD0126885
:10536000236BE06ADB6812099847B0B92E4AECE774
:10537000B7F5407F1AD1012803D1069B1B68DA07D5
:1053800001D42A4AE1E7012D07D0E16A5B104868A1
:105390005A1E02445B4213404B606368002B9DD051
:1053A000DDF80490D9F80030A360A0E740F245335F
:1053B0009F4224D1012804D9069B1F6817F00103DE
:1053C00001D11B4AC1E7012DE7D07F10069A039354
:1053D00052F8230007A9FDF733FD039B08B9154ACE
:1053E000B3E70798039307F0C5FC39460246E06A25
:1053F00002F010F8039B01339845E7D1CDE7012D6A
:10540000CBD0236B0246D3F810B0E06A069B394636
:10541000D847C2E7A1740608B7740608BB7406082B
:10542000C3740608D1740608DD740608E174060822
:10543000ED740608FF74060813B50446B9B101F00F
:105440000F03022B0FD10A091046019206F0C2FD8C
:105450000028019A05DA0749074809F0AFF96060AA
:10546000002002B010BD054AFEF784F9F8E70846AF
:10547000F7E700BF0A75060868D506080F75060825
:105480000023032A2DE9F04104460D4616464270DA
:105490000162C36080F8342002D1C08E50BBA0638B
:1054A000A36A606A1B684FF000083146A4F8368092
:1054B0002A46984706212046FAF76FFF6778EE687C
:1054C000012F04BFA5F82280A5F82480B6B1B20749
:1054D00014D133793F2B11D1B168FDF72BFDA36AAD
:1054E000606AD3F8C0309847A36A606A5B68BDE819
:1054F000F04118478000FBF785FAD0E72B784BB9CD
:1055000031462046FDF716FDA36A1B6B606A102129
:105510009847E4E7072B16D1012F12D10023A3707F
:10552000F168574B46222046FAF75FFF2B8B032B7F
:1055300007D131692046FFF77FFFEB8A43EA8010ED
:10554000E8827169DDE7022B1BD1A36A3168DB6851
:10555000606A98476378012B07D10023A370B16874
:10556000484B4C222046FAF740FFF1682046FDF7F1
:10557000E1FCEB8ADB07B2D5A36A606ADB6D984772
:10558000C2E7033B032B4FD8012FD6F80C8005D17F
:10559000206A04223946FDF798FC6F83A36A3168BC
:1055A000DB68606A98472B78032B24D1A36AD3F871
:1055B0009C300122606A002198472B78062B28D165
:1055C000A36A606A1B6C984701212046FDF79EFC88
:1055D000A36A606A1B6C9847A36A606A1B6C984751
:1055E0000023B26841462046FEF7AAFD2B78062B21
:1055F0007FF475AF88E7042B04D1A36A0222D3F8A5
:105600009C30D7E7052BD8D1A36A0322D3F89C306E
:10561000D0E720460121FDF779FCA36A606AD3F840
:10562000843001219847DBE7012F04D104220A21AD
:105630002846FDF74AFC17212046FDF767FC162196
:105640002046FBF776F9B168A36A606A9B6B09098B
:1056500098471A212046FBF76CF931692046FDF77F
:1056600069FC0A212846FDF720FC0378042BA36A75
:105670003FF44BAF1D694288606A0023A8472EE7BC
:105680007F09030887090308194D6C6907B50146AE
:1056900054B9019017481BF097FC174801990AF07C
:1056A000BDFF164822F0C8FE6060AB690BB19C429A
:1056B0001AD823686B612046C46805694669876902
:1056C000D0F81C80D0F82090D0F824A0D0F828B0D2
:1056D000D0F82CD090ED0C8B90ED0E9B90ED10AB94
:1056E000D0F808E0012070470120FBF77FF9DCE7E4
:1056F000240000201675060834AE0608AB770708AC
:105700002DE9F04F2DED028B1D462D2A00F12803C7
:1057100008EE103A87B00446884616460DD100219F
:10572000FAF72BFEC8B1870702D10379922B14D068
:1057300007B0BDEC028BBDE8F08F922A20D100218A
:10574000FAF71BFE014640B1880706D10B79952B6D
:105750000AD12046FAF70AFE013DA6F11E03012BED
:105760006FD8A9462F461CE0962BF6D12046FAF7B3
:10577000FDFD4B6823F0FF0343F092034B60D7E736
:10578000962A08BF0135E8E71E2E4ED10121FBF70E
:10579000C1F80146C8B95046FBF7BCF8002808BF5D
:1057A0005F4607F1FF3BB9F1000F0ED009F1FF3959
:1057B00049462046FAF7E1FD22696169D21B82461B
:1057C00041F82200B9F1000FDED10021594533D153
:1057D0006D1A012DACD0A6F12303022B01D92A2E7C
:1057E00072D1691E2046FAF7C8FD03A9FDF728FB10
:1057F000002800F08581232E43D0242E44D0252E6E
:105800000CBF4FF018094FF02209AF1E002F3EDAEF
:10581000002D40F06A81039AD30740F16B8142F07A
:1058200001012046FBF7EEF982E70021FBF772F851
:105830000028CAD10121AEE72046FAF797FD0131D1
:10584000C4E7202EC7D100212046FAF796FD00219B
:105850000746FBF75FF888B901213846FBF75AF88D
:105860000028B8D0FA212046FAF780FD204607B07C
:10587000BDEC028BBDE8F04FFBF7C4B94FF48D715E
:10588000F1E74FF01609C0E74FF01709BDE73946B9
:105890002046FAF772FD04A9FDF7D2FA002800F0BD
:1058A0003B81B9F1220F049A07D11046019207F00B
:1058B000A3F90028019AC0F22F81039948460CF001
:1058C000D5F8013F0390A1E7A6F12603022B47D8A4
:1058D000691E2046FAF751FD03A9FDF7B1FA002829
:1058E00000F04E81A5F10209B9F1000F90DD09F138
:1058F000FF312046FAF741FD04A9FDF7A1FAA8B14E
:1059000049462046FAF739FDC0F3071043280DD069
:1059100045280BD0049A01922538C7B2104607F0EB
:105920006BF91A2F019A0FD8002811DAA91C8900E7
:105930002046FBF772F846EA05230746C0F80080C8
